{
  "address": "0xdE1F38a7CCB1964Bfaa94B284Fa47D7cd7d6D5cE",
  "abi": [
    {
      "inputs": [],
      "name": "NftMarket__NftAlreadyListed",
      "type": "error"
    },
    {
      "inputs": [],
      "name": "NftMarket__NftNotListed",
      "type": "error"
    },
    {
      "inputs": [],
      "name": "NftMarket__NoProceeds",
      "type": "error"
    },
    {
      "inputs": [],
      "name": "NftMarket__NotEnoughFund",
      "type": "error"
    },
    {
      "inputs": [],
      "name": "NftMarket__NotOwner",
      "type": "error"
    },
    {
      "inputs": [],
      "name": "NftMarket__PriceTooLow",
      "type": "error"
    },
    {
      "inputs": [],
      "name": "NftMarket__UnapprovedNft",
      "type": "error"
    },
    {
      "inputs": [],
      "name": "NftMarket__WithdrawProceedFail",
      "type": "error"
    },
    {
      "anonymous": false,
      "inputs": [
        {
          "indexed": false,
          "internalType": "address",
          "name": "nftAddress",
          "type": "address"
        },
        {
          "indexed": false,
          "internalType": "uint256",
          "name": "tokenId",
          "type": "uint256"
        }
      ],
      "name": "ListingDeleted",
      "type": "event"
    },
    {
      "anonymous": false,
      "inputs": [
        {
          "indexed": false,
          "internalType": "address",
          "name": "nftAddress",
          "type": "address"
        },
        {
          "indexed": false,
          "internalType": "uint256",
          "name": "tokenId",
          "type": "uint256"
        },
        {
          "indexed": false,
          "internalType": "address",
          "name": "buyer",
          "type": "address"
        },
        {
          "indexed": false,
          "internalType": "uint256",
          "name": "price",
          "type": "uint256"
        }
      ],
      "name": "NftBought",
      "type": "event"
    },
    {
      "anonymous": false,
      "inputs": [
        {
          "indexed": false,
          "internalType": "address",
          "name": "nftAddress",
          "type": "address"
        },
        {
          "indexed": false,
          "internalType": "uint256",
          "name": "tokenId",
          "type": "uint256"
        },
        {
          "indexed": false,
          "internalType": "address",
          "name": "seller",
          "type": "address"
        },
        {
          "indexed": false,
          "internalType": "uint256",
          "name": "price",
          "type": "uint256"
        }
      ],
      "name": "NftListed",
      "type": "event"
    },
    {
      "inputs": [
        {
          "internalType": "address",
          "name": "nftAddress",
          "type": "address"
        },
        {
          "internalType": "uint256",
          "name": "tokenId",
          "type": "uint256"
        }
      ],
      "name": "buyItem",
      "outputs": [],
      "stateMutability": "payable",
      "type": "function"
    },
    {
      "inputs": [
        {
          "internalType": "address",
          "name": "nftAddress",
          "type": "address"
        },
        {
          "internalType": "uint256",
          "name": "tokenId",
          "type": "uint256"
        }
      ],
      "name": "cancelListing",
      "outputs": [],
      "stateMutability": "nonpayable",
      "type": "function"
    },
    {
      "inputs": [
        {
          "internalType": "address",
          "name": "nftAddress",
          "type": "address"
        },
        {
          "internalType": "uint256",
          "name": "tokenId",
          "type": "uint256"
        },
        {
          "internalType": "uint256",
          "name": "price",
          "type": "uint256"
        }
      ],
      "name": "createListing",
      "outputs": [],
      "stateMutability": "nonpayable",
      "type": "function"
    },
    {
      "inputs": [
        {
          "internalType": "address",
          "name": "nftAddress",
          "type": "address"
        },
        {
          "internalType": "uint256",
          "name": "tokenId",
          "type": "uint256"
        },
        {
          "internalType": "uint256",
          "name": "price",
          "type": "uint256"
        }
      ],
      "name": "updateListing",
      "outputs": [],
      "stateMutability": "nonpayable",
      "type": "function"
    },
    {
      "inputs": [],
      "name": "withdraw",
      "outputs": [],
      "stateMutability": "payable",
      "type": "function"
    }
  ],
  "transactionHash": "0x7881ac39d8e92762562e7b0aef3caadbadd2ceebd91d2df7c17b2edb892be35a",
  "args": [],
  "numDeployments": 1,
  "solcInputHash": "eb80654d2fa43bf25b744f7935200c66",
  "bytecode": "0x608060405234801561001057600080fd5b5060016000819055506112eb806100286000396000f3fe60806040526004361061004a5760003560e01c806324780c561461004f5780633ccfd60b146100785780639f37092a14610082578063b2ddee061461009e578063f772adf1146100c7575b600080fd5b34801561005b57600080fd5b5061007660048036038101906100719190611022565b6100f0565b005b610080610519565b005b61009c60048036038101906100979190611075565b61060b565b005b3480156100aa57600080fd5b506100c560048036038101906100c09190611075565b6109ed565b005b3480156100d357600080fd5b506100ee60048036038101906100e99190611022565b610ca1565b005b82826000600160008473ffffffffffffffffffffffffffffffffffffffff1673ffffffffffffffffffffffffffffffffffffffff16815260200190815260200160002060008381526020019081526020016000206040518060400160405290816000820160009054906101000a900473ffffffffffffffffffffffffffffffffffffffff1673ffffffffffffffffffffffffffffffffffffffff1673ffffffffffffffffffffffffffffffffffffffff168152602001600182015481525050905060008160200151116104df578585600082905060008173ffffffffffffffffffffffffffffffffffffffff16636352211e846040518263ffffffff1660e01b81526004016101ff91906110c4565b602060405180830381865afa15801561021c573d6000803e3d6000fd5b505050506040513d601f19601f8201168201806040525081019061024091906110f4565b90503373ffffffffffffffffffffffffffffffffffffffff168173ffffffffffffffffffffffffffffffffffffffff16036104a457600088116102af576040517f74ab794b00000000000000000000000000000000000000000000000000000000815260040160405180910390fd5b60008a90503073ffffffffffffffffffffffffffffffffffffffff168173ffffffffffffffffffffffffffffffffffffffff1663081812fc8c6040518263ffffffff1660e01b815260040161030491906110c4565b602060405180830381865afa158015610321573d6000803e3d6000fd5b505050506040513d601f19601f8201168201806040525081019061034591906110f4565b73ffffffffffffffffffffffffffffffffffffffff1614610392576040517fbe4dd5a600000000000000000000000000000000000000000000000000000000815260040160405180910390fd5b60405180604001604052803373ffffffffffffffffffffffffffffffffffffffff1681526020018a815250600160008d73ffffffffffffffffffffffffffffffffffffffff1673ffffffffffffffffffffffffffffffffffffffff16815260200190815260200160002060008c815260200190815260200160002060008201518160000160006101000a81548173ffffffffffffffffffffffffffffffffffffffff021916908373ffffffffffffffffffffffffffffffffffffffff160217905550602082015181600101559050507fe77c968bf19b7719db31a77b3b1392ff896ba9e80d49e57381106452c9d7cc268b8b338c6040516104969493929190611130565b60405180910390a1506104d6565b6040517f732bfb2f00000000000000000000000000000000000000000000000000000000815260040160405180910390fd5b50505050610511565b6040517fcc47f23c00000000000000000000000000000000000000000000000000000000815260040160405180910390fd5b505050505050565b6000600260003373ffffffffffffffffffffffffffffffffffffffff1673ffffffffffffffffffffffffffffffffffffffff16815260200190815260200160002054905060008111610597576040517f07cd4b5d00000000000000000000000000000000000000000000000000000000815260040160405180910390fd5b60003373ffffffffffffffffffffffffffffffffffffffff166108fc839081150290604051600060405180830381858888f19350505050905080610607576040517f98f5ac1100000000000000000000000000000000000000000000000000000000815260040160405180910390fd5b5050565b610613610f30565b81816000600160008473ffffffffffffffffffffffffffffffffffffffff1673ffffffffffffffffffffffffffffffffffffffff16815260200190815260200160002060008381526020019081526020016000206040518060400160405290816000820160009054906101000a900473ffffffffffffffffffffffffffffffffffffffff1673ffffffffffffffffffffffffffffffffffffffff1673ffffffffffffffffffffffffffffffffffffffff16815260200160018201548152505090506000816020015111610712576040517f60bd97a200000000000000000000000000000000000000000000000000000000815260040160405180910390fd5b6000600160008773ffffffffffffffffffffffffffffffffffffffff1673ffffffffffffffffffffffffffffffffffffffff16815260200190815260200160002060008681526020019081526020016000206040518060400160405290816000820160009054906101000a900473ffffffffffffffffffffffffffffffffffffffff1673ffffffffffffffffffffffffffffffffffffffff1673ffffffffffffffffffffffffffffffffffffffff1681526020016001820154815250509050806020015134101561080f576040517f11631d6900000000000000000000000000000000000000000000000000000000815260040160405180910390fd5b60008690508073ffffffffffffffffffffffffffffffffffffffff166342842e0e836000015133896040518463ffffffff1660e01b815260040161085593929190611175565b600060405180830381600087803b15801561086f57600080fd5b505af1158015610883573d6000803e3d6000fd5b505050503460026000846000015173ffffffffffffffffffffffffffffffffffffffff1673ffffffffffffffffffffffffffffffffffffffff168152602001908152602001600020546108d691906111db565b60026000846000015173ffffffffffffffffffffffffffffffffffffffff1673ffffffffffffffffffffffffffffffffffffffff16815260200190815260200160002081905550600160008873ffffffffffffffffffffffffffffffffffffffff1673ffffffffffffffffffffffffffffffffffffffff1681526020019081526020016000206000878152602001908152602001600020600080820160006101000a81549073ffffffffffffffffffffffffffffffffffffffff0219169055600182016000905550507fbd9ca37d39bd82cad4a35d9618ccc46b7055d04e211f817b2e6dae1267a02f70878733346040516109d49493929190611130565b60405180910390a150505050506109e9610f7f565b5050565b81816000600160008473ffffffffffffffffffffffffffffffffffffffff1673ffffffffffffffffffffffffffffffffffffffff16815260200190815260200160002060008381526020019081526020016000206040518060400160405290816000820160009054906101000a900473ffffffffffffffffffffffffffffffffffffffff1673ffffffffffffffffffffffffffffffffffffffff1673ffffffffffffffffffffffffffffffffffffffff16815260200160018201548152505090506000816020015111610aec576040517f60bd97a200000000000000000000000000000000000000000000000000000000815260040160405180910390fd5b8484600082905060008173ffffffffffffffffffffffffffffffffffffffff16636352211e846040518263ffffffff1660e01b8152600401610b2e91906110c4565b602060405180830381865afa158015610b4b573d6000803e3d6000fd5b505050506040513d601f19601f82011682018060405250810190610b6f91906110f4565b90503373ffffffffffffffffffffffffffffffffffffffff168173ffffffffffffffffffffffffffffffffffffffff1603610c6457600160008a73ffffffffffffffffffffffffffffffffffffffff1673ffffffffffffffffffffffffffffffffffffffff1681526020019081526020016000206000898152602001908152602001600020600080820160006101000a81549073ffffffffffffffffffffffffffffffffffffffff0219169055600182016000905550507f53df6f80c006573b58e17d6440b870b40592881a21c175cde20004a4135dd4608989604051610c5792919061120f565b60405180910390a1610c96565b6040517f732bfb2f00000000000000000000000000000000000000000000000000000000815260040160405180910390fd5b505050505050505050565b82826000600160008473ffffffffffffffffffffffffffffffffffffffff1673ffffffffffffffffffffffffffffffffffffffff16815260200190815260200160002060008381526020019081526020016000206040518060400160405290816000820160009054906101000a900473ffffffffffffffffffffffffffffffffffffffff1673ffffffffffffffffffffffffffffffffffffffff1673ffffffffffffffffffffffffffffffffffffffff16815260200160018201548152505090506000816020015111610da0576040517f60bd97a200000000000000000000000000000000000000000000000000000000815260040160405180910390fd5b8585600082905060008173ffffffffffffffffffffffffffffffffffffffff16636352211e846040518263ffffffff1660e01b8152600401610de291906110c4565b602060405180830381865afa158015610dff573d6000803e3d6000fd5b505050506040513d601f19601f82011682018060405250810190610e2391906110f4565b90503373ffffffffffffffffffffffffffffffffffffffff168173ffffffffffffffffffffffffffffffffffffffff1603610ef25787600160008c73ffffffffffffffffffffffffffffffffffffffff1673ffffffffffffffffffffffffffffffffffffffff16815260200190815260200160002060008b8152602001908152602001600020600101819055507fe77c968bf19b7719db31a77b3b1392ff896ba9e80d49e57381106452c9d7cc268a8a338b604051610ee59493929190611130565b60405180910390a1610f24565b6040517f732bfb2f00000000000000000000000000000000000000000000000000000000815260040160405180910390fd5b50505050505050505050565b600260005403610f75576040517f08c379a0000000000000000000000000000000000000000000000000000000008152600401610f6c90611295565b60405180910390fd5b6002600081905550565b6001600081905550565b600080fd5b600073ffffffffffffffffffffffffffffffffffffffff82169050919050565b6000610fb982610f8e565b9050919050565b610fc981610fae565b8114610fd457600080fd5b50565b600081359050610fe681610fc0565b92915050565b6000819050919050565b610fff81610fec565b811461100a57600080fd5b50565b60008135905061101c81610ff6565b92915050565b60008060006060848603121561103b5761103a610f89565b5b600061104986828701610fd7565b935050602061105a8682870161100d565b925050604061106b8682870161100d565b9150509250925092565b6000806040838503121561108c5761108b610f89565b5b600061109a85828601610fd7565b92505060206110ab8582860161100d565b9150509250929050565b6110be81610fec565b82525050565b60006020820190506110d960008301846110b5565b92915050565b6000815190506110ee81610fc0565b92915050565b60006020828403121561110a57611109610f89565b5b6000611118848285016110df565b91505092915050565b61112a81610fae565b82525050565b60006080820190506111456000830187611121565b61115260208301866110b5565b61115f6040830185611121565b61116c60608301846110b5565b95945050505050565b600060608201905061118a6000830186611121565b6111976020830185611121565b6111a460408301846110b5565b949350505050565b7f4e487b7100000000000000000000000000000000000000000000000000000000600052601160045260246000fd5b60006111e682610fec565b91506111f183610fec565b9250828201905080821115611209576112086111ac565b5b92915050565b60006040820190506112246000830185611121565b61123160208301846110b5565b9392505050565b600082825260208201905092915050565b7f5265656e7472616e637947756172643a207265656e7472616e742063616c6c00600082015250565b600061127f601f83611238565b915061128a82611249565b602082019050919050565b600060208201905081810360008301526112ae81611272565b905091905056fea2646970667358221220ba7e12993524bc7ea6d8450700e86800c1a146090580906193711310a281e9ef64736f6c63430008110033",
  "devdoc": {
    "kind": "dev",
    "methods": {},
    "version": 1
  },
  "userdoc": {
    "kind": "user",
    "methods": {},
    "version": 1
  },
  "storageLayout": {
    "storage": [
      {
        "astId": 10,
        "contract": "contracts/NftMarket.sol:NftMarket",
        "label": "_status",
        "offset": 0,
        "slot": "0",
        "type": "t_uint256"
      },
      {
        "astId": 2762,
        "contract": "contracts/NftMarket.sol:NftMarket",
        "label": "listings",
        "offset": 0,
        "slot": "1",
        "type": "t_mapping(t_address,t_mapping(t_uint256,t_struct(Listing)2729_storage))"
      },
      {
        "astId": 2766,
        "contract": "contracts/NftMarket.sol:NftMarket",
        "label": "proceeds",
        "offset": 0,
        "slot": "2",
        "type": "t_mapping(t_address,t_uint256)"
      }
    ],
    "types": {
      "t_address": {
        "encoding": "inplace",
        "label": "address",
        "numberOfBytes": "20"
      },
      "t_mapping(t_address,t_mapping(t_uint256,t_struct(Listing)2729_storage))": {
        "encoding": "mapping",
        "key": "t_address",
        "label": "mapping(address => mapping(uint256 => struct NftMarket.Listing))",
        "numberOfBytes": "32",
        "value": "t_mapping(t_uint256,t_struct(Listing)2729_storage)"
      },
      "t_mapping(t_address,t_uint256)": {
        "encoding": "mapping",
        "key": "t_address",
        "label": "mapping(address => uint256)",
        "numberOfBytes": "32",
        "value": "t_uint256"
      },
      "t_mapping(t_uint256,t_struct(Listing)2729_storage)": {
        "encoding": "mapping",
        "key": "t_uint256",
        "label": "mapping(uint256 => struct NftMarket.Listing)",
        "numberOfBytes": "32",
        "value": "t_struct(Listing)2729_storage"
      },
      "t_struct(Listing)2729_storage": {
        "encoding": "inplace",
        "label": "struct NftMarket.Listing",
        "members": [
          {
            "astId": 2726,
            "contract": "contracts/NftMarket.sol:NftMarket",
            "label": "seller",
            "offset": 0,
            "slot": "0",
            "type": "t_address"
          },
          {
            "astId": 2728,
            "contract": "contracts/NftMarket.sol:NftMarket",
            "label": "price",
            "offset": 0,
            "slot": "1",
            "type": "t_uint256"
          }
        ],
        "numberOfBytes": "64"
      },
      "t_uint256": {
        "encoding": "inplace",
        "label": "uint256",
        "numberOfBytes": "32"
      }
    }
  }
}