{
  "address": "0x21ab156F2398425DC4333906cEb4dF01E3F07be0",
  "abi": [
    {
      "inputs": [],
      "name": "NftMarket__NftNotListed",
      "type": "error"
    },
    {
      "inputs": [],
      "name": "NftMarket__NoProceeds",
      "type": "error"
    },
    {
      "inputs": [],
      "name": "NftMarket__NotEnoughFund",
      "type": "error"
    },
    {
      "inputs": [],
      "name": "NftMarket__NotOwner",
      "type": "error"
    },
    {
      "inputs": [],
      "name": "NftMarket__PriceTooLow",
      "type": "error"
    },
    {
      "inputs": [],
      "name": "NftMarket__UnapprovedNft",
      "type": "error"
    },
    {
      "inputs": [],
      "name": "NftMarket__WithdrawProceedFail",
      "type": "error"
    },
    {
      "anonymous": false,
      "inputs": [
        {
          "indexed": false,
          "internalType": "address",
          "name": "nftAddress",
          "type": "address"
        },
        {
          "indexed": false,
          "internalType": "uint256",
          "name": "tokenId",
          "type": "uint256"
        }
      ],
      "name": "ListingDeleted",
      "type": "event"
    },
    {
      "anonymous": false,
      "inputs": [
        {
          "indexed": false,
          "internalType": "address",
          "name": "nftAddress",
          "type": "address"
        },
        {
          "indexed": false,
          "internalType": "uint256",
          "name": "tokenId",
          "type": "uint256"
        },
        {
          "indexed": false,
          "internalType": "address",
          "name": "buyer",
          "type": "address"
        },
        {
          "indexed": false,
          "internalType": "uint256",
          "name": "price",
          "type": "uint256"
        }
      ],
      "name": "NftBought",
      "type": "event"
    },
    {
      "anonymous": false,
      "inputs": [
        {
          "indexed": false,
          "internalType": "address",
          "name": "nftAddress",
          "type": "address"
        },
        {
          "indexed": false,
          "internalType": "uint256",
          "name": "tokenId",
          "type": "uint256"
        },
        {
          "indexed": false,
          "internalType": "address",
          "name": "seller",
          "type": "address"
        },
        {
          "indexed": false,
          "internalType": "uint256",
          "name": "price",
          "type": "uint256"
        }
      ],
      "name": "NftListed",
      "type": "event"
    },
    {
      "inputs": [
        {
          "internalType": "address",
          "name": "nftAddress",
          "type": "address"
        },
        {
          "internalType": "uint256",
          "name": "tokenId",
          "type": "uint256"
        }
      ],
      "name": "buyItem",
      "outputs": [],
      "stateMutability": "payable",
      "type": "function"
    },
    {
      "inputs": [
        {
          "internalType": "address",
          "name": "nftAddress",
          "type": "address"
        },
        {
          "internalType": "uint256",
          "name": "tokenId",
          "type": "uint256"
        }
      ],
      "name": "cancelListing",
      "outputs": [],
      "stateMutability": "nonpayable",
      "type": "function"
    },
    {
      "inputs": [
        {
          "internalType": "address",
          "name": "nftAddress",
          "type": "address"
        },
        {
          "internalType": "uint256",
          "name": "tokenId",
          "type": "uint256"
        },
        {
          "internalType": "uint256",
          "name": "price",
          "type": "uint256"
        }
      ],
      "name": "listNft",
      "outputs": [],
      "stateMutability": "nonpayable",
      "type": "function"
    },
    {
      "inputs": [
        {
          "internalType": "address",
          "name": "",
          "type": "address"
        },
        {
          "internalType": "uint256",
          "name": "",
          "type": "uint256"
        }
      ],
      "name": "listings",
      "outputs": [
        {
          "internalType": "address",
          "name": "seller",
          "type": "address"
        },
        {
          "internalType": "uint256",
          "name": "price",
          "type": "uint256"
        }
      ],
      "stateMutability": "view",
      "type": "function"
    },
    {
      "inputs": [],
      "name": "withdraw",
      "outputs": [],
      "stateMutability": "payable",
      "type": "function"
    }
  ],
  "transactionHash": "0x34a57ffc432da417f3180d1f31f1d0e0adfb775f69ca19c54176112af1ea0263",
  "args": [],
  "numDeployments": 4,
  "solcInputHash": "ed33344c07a11754776f7e4dca5fa2c2",
  "bytecode": "0x608060405234801561001057600080fd5b5060016000819055506110e4806100286000396000f3fe6080604052600436106100495760003560e01c806207df301461004e5780633ccfd60b1461008c5780639f37092a14610096578063b2ddee06146100b2578063c922b17c146100db575b600080fd5b34801561005a57600080fd5b5061007560048036038101906100709190610e1b565b610104565b604051610083929190610e79565b60405180910390f35b610094610155565b005b6100b060048036038101906100ab9190610e1b565b610247565b005b3480156100be57600080fd5b506100d960048036038101906100d49190610e1b565b610629565b005b3480156100e757600080fd5b5061010260048036038101906100fd9190610ea2565b6108dd565b005b6001602052816000526040600020602052806000526040600020600091509150508060000160009054906101000a900473ffffffffffffffffffffffffffffffffffffffff16908060010154905082565b6000600260003373ffffffffffffffffffffffffffffffffffffffff1673ffffffffffffffffffffffffffffffffffffffff168152602001908152602001600020549050600081116101d3576040517f07cd4b5d00000000000000000000000000000000000000000000000000000000815260040160405180910390fd5b60003373ffffffffffffffffffffffffffffffffffffffff166108fc839081150290604051600060405180830381858888f19350505050905080610243576040517f98f5ac1100000000000000000000000000000000000000000000000000000000815260040160405180910390fd5b5050565b61024f610d29565b81816000600160008473ffffffffffffffffffffffffffffffffffffffff1673ffffffffffffffffffffffffffffffffffffffff16815260200190815260200160002060008381526020019081526020016000206040518060400160405290816000820160009054906101000a900473ffffffffffffffffffffffffffffffffffffffff1673ffffffffffffffffffffffffffffffffffffffff1673ffffffffffffffffffffffffffffffffffffffff1681526020016001820154815250509050600081602001511161034e576040517f60bd97a200000000000000000000000000000000000000000000000000000000815260040160405180910390fd5b6000600160008773ffffffffffffffffffffffffffffffffffffffff1673ffffffffffffffffffffffffffffffffffffffff16815260200190815260200160002060008681526020019081526020016000206040518060400160405290816000820160009054906101000a900473ffffffffffffffffffffffffffffffffffffffff1673ffffffffffffffffffffffffffffffffffffffff1673ffffffffffffffffffffffffffffffffffffffff1681526020016001820154815250509050806020015134101561044b576040517f11631d6900000000000000000000000000000000000000000000000000000000815260040160405180910390fd5b60008690508073ffffffffffffffffffffffffffffffffffffffff166342842e0e836000015133896040518463ffffffff1660e01b815260040161049193929190610ef5565b600060405180830381600087803b1580156104ab57600080fd5b505af11580156104bf573d6000803e3d6000fd5b505050503460026000846000015173ffffffffffffffffffffffffffffffffffffffff1673ffffffffffffffffffffffffffffffffffffffff168152602001908152602001600020546105129190610f5b565b60026000846000015173ffffffffffffffffffffffffffffffffffffffff1673ffffffffffffffffffffffffffffffffffffffff16815260200190815260200160002081905550600160008873ffffffffffffffffffffffffffffffffffffffff1673ffffffffffffffffffffffffffffffffffffffff1681526020019081526020016000206000878152602001908152602001600020600080820160006101000a81549073ffffffffffffffffffffffffffffffffffffffff0219169055600182016000905550507fbd9ca37d39bd82cad4a35d9618ccc46b7055d04e211f817b2e6dae1267a02f70878733346040516106109493929190610f8f565b60405180910390a15050505050610625610d78565b5050565b81816000600160008473ffffffffffffffffffffffffffffffffffffffff1673ffffffffffffffffffffffffffffffffffffffff16815260200190815260200160002060008381526020019081526020016000206040518060400160405290816000820160009054906101000a900473ffffffffffffffffffffffffffffffffffffffff1673ffffffffffffffffffffffffffffffffffffffff1673ffffffffffffffffffffffffffffffffffffffff16815260200160018201548152505090506000816020015111610728576040517f60bd97a200000000000000000000000000000000000000000000000000000000815260040160405180910390fd5b8484600082905060008173ffffffffffffffffffffffffffffffffffffffff16636352211e846040518263ffffffff1660e01b815260040161076a9190610fd4565b602060405180830381865afa158015610787573d6000803e3d6000fd5b505050506040513d601f19601f820116820180604052508101906107ab9190611004565b90503373ffffffffffffffffffffffffffffffffffffffff168173ffffffffffffffffffffffffffffffffffffffff16036108a057600160008a73ffffffffffffffffffffffffffffffffffffffff1673ffffffffffffffffffffffffffffffffffffffff1681526020019081526020016000206000898152602001908152602001600020600080820160006101000a81549073ffffffffffffffffffffffffffffffffffffffff0219169055600182016000905550507f53df6f80c006573b58e17d6440b870b40592881a21c175cde20004a4135dd4608989604051610893929190610e79565b60405180910390a16108d2565b6040517f732bfb2f00000000000000000000000000000000000000000000000000000000815260040160405180910390fd5b505050505050505050565b8282600082905060008173ffffffffffffffffffffffffffffffffffffffff16636352211e846040518263ffffffff1660e01b815260040161091f9190610fd4565b602060405180830381865afa15801561093c573d6000803e3d6000fd5b505050506040513d601f19601f820116820180604052508101906109609190611004565b90503373ffffffffffffffffffffffffffffffffffffffff168173ffffffffffffffffffffffffffffffffffffffff1603610cee57600085116109cf576040517f74ab794b00000000000000000000000000000000000000000000000000000000815260040160405180910390fd5b60008790503073ffffffffffffffffffffffffffffffffffffffff168173ffffffffffffffffffffffffffffffffffffffff1663081812fc896040518263ffffffff1660e01b8152600401610a249190610fd4565b602060405180830381865afa158015610a41573d6000803e3d6000fd5b505050506040513d601f19601f82011682018060405250810190610a659190611004565b73ffffffffffffffffffffffffffffffffffffffff1614610ab2576040517fbe4dd5a600000000000000000000000000000000000000000000000000000000815260040160405180910390fd5b6000600160008a73ffffffffffffffffffffffffffffffffffffffff1673ffffffffffffffffffffffffffffffffffffffff16815260200190815260200160002060008981526020019081526020016000206040518060400160405290816000820160009054906101000a900473ffffffffffffffffffffffffffffffffffffffff1673ffffffffffffffffffffffffffffffffffffffff1673ffffffffffffffffffffffffffffffffffffffff16815260200160018201548152505090506000816020015111610c515760405180604001604052803373ffffffffffffffffffffffffffffffffffffffff16815260200188815250600160008b73ffffffffffffffffffffffffffffffffffffffff1673ffffffffffffffffffffffffffffffffffffffff16815260200190815260200160002060008a815260200190815260200160002060008201518160000160006101000a81548173ffffffffffffffffffffffffffffffffffffffff021916908373ffffffffffffffffffffffffffffffffffffffff16021790555060208201518160010155905050610caa565b86600160008b73ffffffffffffffffffffffffffffffffffffffff1673ffffffffffffffffffffffffffffffffffffffff16815260200190815260200160002060008a8152602001908152602001600020600101819055505b7fe77c968bf19b7719db31a77b3b1392ff896ba9e80d49e57381106452c9d7cc268989338a604051610cdf9493929190610f8f565b60405180910390a15050610d20565b6040517f732bfb2f00000000000000000000000000000000000000000000000000000000815260040160405180910390fd5b50505050505050565b600260005403610d6e576040517f08c379a0000000000000000000000000000000000000000000000000000000008152600401610d659061108e565b60405180910390fd5b6002600081905550565b6001600081905550565b600080fd5b600073ffffffffffffffffffffffffffffffffffffffff82169050919050565b6000610db282610d87565b9050919050565b610dc281610da7565b8114610dcd57600080fd5b50565b600081359050610ddf81610db9565b92915050565b6000819050919050565b610df881610de5565b8114610e0357600080fd5b50565b600081359050610e1581610def565b92915050565b60008060408385031215610e3257610e31610d82565b5b6000610e4085828601610dd0565b9250506020610e5185828601610e06565b9150509250929050565b610e6481610da7565b82525050565b610e7381610de5565b82525050565b6000604082019050610e8e6000830185610e5b565b610e9b6020830184610e6a565b9392505050565b600080600060608486031215610ebb57610eba610d82565b5b6000610ec986828701610dd0565b9350506020610eda86828701610e06565b9250506040610eeb86828701610e06565b9150509250925092565b6000606082019050610f0a6000830186610e5b565b610f176020830185610e5b565b610f246040830184610e6a565b949350505050565b7f4e487b7100000000000000000000000000000000000000000000000000000000600052601160045260246000fd5b6000610f6682610de5565b9150610f7183610de5565b9250828201905080821115610f8957610f88610f2c565b5b92915050565b6000608082019050610fa46000830187610e5b565b610fb16020830186610e6a565b610fbe6040830185610e5b565b610fcb6060830184610e6a565b95945050505050565b6000602082019050610fe96000830184610e6a565b92915050565b600081519050610ffe81610db9565b92915050565b60006020828403121561101a57611019610d82565b5b600061102884828501610fef565b91505092915050565b600082825260208201905092915050565b7f5265656e7472616e637947756172643a207265656e7472616e742063616c6c00600082015250565b6000611078601f83611031565b915061108382611042565b602082019050919050565b600060208201905081810360008301526110a78161106b565b905091905056fea2646970667358221220afdeea58b9f846194438d7c28026a94587106a3cf8c973a98aa7ed671250a40564736f6c63430008110033",
  "devdoc": {
    "kind": "dev",
    "methods": {},
    "version": 1
  },
  "userdoc": {
    "kind": "user",
    "methods": {},
    "version": 1
  },
  "storageLayout": {
    "storage": [
      {
        "astId": 10,
        "contract": "contracts/NftMarket.sol:NftMarket",
        "label": "_status",
        "offset": 0,
        "slot": "0",
        "type": "t_uint256"
      },
      {
        "astId": 241,
        "contract": "contracts/NftMarket.sol:NftMarket",
        "label": "listings",
        "offset": 0,
        "slot": "1",
        "type": "t_mapping(t_address,t_mapping(t_uint256,t_struct(Listing)208_storage))"
      },
      {
        "astId": 245,
        "contract": "contracts/NftMarket.sol:NftMarket",
        "label": "proceeds",
        "offset": 0,
        "slot": "2",
        "type": "t_mapping(t_address,t_uint256)"
      }
    ],
    "types": {
      "t_address": {
        "encoding": "inplace",
        "label": "address",
        "numberOfBytes": "20"
      },
      "t_mapping(t_address,t_mapping(t_uint256,t_struct(Listing)208_storage))": {
        "encoding": "mapping",
        "key": "t_address",
        "label": "mapping(address => mapping(uint256 => struct NftMarket.Listing))",
        "numberOfBytes": "32",
        "value": "t_mapping(t_uint256,t_struct(Listing)208_storage)"
      },
      "t_mapping(t_address,t_uint256)": {
        "encoding": "mapping",
        "key": "t_address",
        "label": "mapping(address => uint256)",
        "numberOfBytes": "32",
        "value": "t_uint256"
      },
      "t_mapping(t_uint256,t_struct(Listing)208_storage)": {
        "encoding": "mapping",
        "key": "t_uint256",
        "label": "mapping(uint256 => struct NftMarket.Listing)",
        "numberOfBytes": "32",
        "value": "t_struct(Listing)208_storage"
      },
      "t_struct(Listing)208_storage": {
        "encoding": "inplace",
        "label": "struct NftMarket.Listing",
        "members": [
          {
            "astId": 205,
            "contract": "contracts/NftMarket.sol:NftMarket",
            "label": "seller",
            "offset": 0,
            "slot": "0",
            "type": "t_address"
          },
          {
            "astId": 207,
            "contract": "contracts/NftMarket.sol:NftMarket",
            "label": "price",
            "offset": 0,
            "slot": "1",
            "type": "t_uint256"
          }
        ],
        "numberOfBytes": "64"
      },
      "t_uint256": {
        "encoding": "inplace",
        "label": "uint256",
        "numberOfBytes": "32"
      }
    }
  }
}