{
  "address": "0x75A82758CBcA28c320f9EF81ad74EdFC2E3A4883",
  "abi": [
    {
      "inputs": [],
      "name": "NftMarket__NftAlreadyListed",
      "type": "error"
    },
    {
      "inputs": [],
      "name": "NftMarket__NftNotListed",
      "type": "error"
    },
    {
      "inputs": [],
      "name": "NftMarket__NoProceeds",
      "type": "error"
    },
    {
      "inputs": [],
      "name": "NftMarket__NotEnoughFund",
      "type": "error"
    },
    {
      "inputs": [],
      "name": "NftMarket__NotOwner",
      "type": "error"
    },
    {
      "inputs": [],
      "name": "NftMarket__PriceTooLow",
      "type": "error"
    },
    {
      "inputs": [],
      "name": "NftMarket__UnapprovedNft",
      "type": "error"
    },
    {
      "inputs": [],
      "name": "NftMarket__WithdrawProceedFail",
      "type": "error"
    },
    {
      "anonymous": false,
      "inputs": [
        {
          "indexed": false,
          "internalType": "address",
          "name": "nftAddress",
          "type": "address"
        },
        {
          "indexed": false,
          "internalType": "uint256",
          "name": "tokenId",
          "type": "uint256"
        }
      ],
      "name": "ListingDeleted",
      "type": "event"
    },
    {
      "anonymous": false,
      "inputs": [
        {
          "indexed": false,
          "internalType": "address",
          "name": "nftAddress",
          "type": "address"
        },
        {
          "indexed": false,
          "internalType": "uint256",
          "name": "tokenId",
          "type": "uint256"
        },
        {
          "indexed": false,
          "internalType": "address",
          "name": "buyer",
          "type": "address"
        },
        {
          "indexed": false,
          "internalType": "uint256",
          "name": "price",
          "type": "uint256"
        }
      ],
      "name": "NftBought",
      "type": "event"
    },
    {
      "anonymous": false,
      "inputs": [
        {
          "indexed": false,
          "internalType": "address",
          "name": "nftAddress",
          "type": "address"
        },
        {
          "indexed": false,
          "internalType": "uint256",
          "name": "tokenId",
          "type": "uint256"
        },
        {
          "indexed": false,
          "internalType": "address",
          "name": "seller",
          "type": "address"
        },
        {
          "indexed": false,
          "internalType": "uint256",
          "name": "price",
          "type": "uint256"
        }
      ],
      "name": "NftListed",
      "type": "event"
    },
    {
      "inputs": [
        {
          "internalType": "address",
          "name": "nftAddress",
          "type": "address"
        },
        {
          "internalType": "uint256",
          "name": "tokenId",
          "type": "uint256"
        }
      ],
      "name": "buyItem",
      "outputs": [],
      "stateMutability": "payable",
      "type": "function"
    },
    {
      "inputs": [
        {
          "internalType": "address",
          "name": "nftAddress",
          "type": "address"
        },
        {
          "internalType": "uint256",
          "name": "tokenId",
          "type": "uint256"
        }
      ],
      "name": "cancelListing",
      "outputs": [],
      "stateMutability": "nonpayable",
      "type": "function"
    },
    {
      "inputs": [
        {
          "internalType": "address",
          "name": "nftAddress",
          "type": "address"
        },
        {
          "internalType": "uint256",
          "name": "tokenId",
          "type": "uint256"
        },
        {
          "internalType": "uint256",
          "name": "price",
          "type": "uint256"
        }
      ],
      "name": "createListing",
      "outputs": [],
      "stateMutability": "nonpayable",
      "type": "function"
    },
    {
      "inputs": [
        {
          "internalType": "address",
          "name": "",
          "type": "address"
        },
        {
          "internalType": "uint256",
          "name": "",
          "type": "uint256"
        }
      ],
      "name": "listings",
      "outputs": [
        {
          "internalType": "address",
          "name": "seller",
          "type": "address"
        },
        {
          "internalType": "uint256",
          "name": "price",
          "type": "uint256"
        }
      ],
      "stateMutability": "view",
      "type": "function"
    },
    {
      "inputs": [
        {
          "internalType": "address",
          "name": "nftAddress",
          "type": "address"
        },
        {
          "internalType": "uint256",
          "name": "tokenId",
          "type": "uint256"
        },
        {
          "internalType": "uint256",
          "name": "price",
          "type": "uint256"
        }
      ],
      "name": "updateListing",
      "outputs": [],
      "stateMutability": "nonpayable",
      "type": "function"
    },
    {
      "inputs": [],
      "name": "withdraw",
      "outputs": [],
      "stateMutability": "payable",
      "type": "function"
    }
  ],
  "transactionHash": "0x5ca7aa44d532c0f08663153e45529586e17f5cfed1ac82c0956e35de3a982731",
  "args": [],
  "numDeployments": 2,
  "solcInputHash": "23d382a8c15abacb66d5faaed3f3fde8",
  "bytecode": "0x608060405234801561001057600080fd5b506001600081905550611384806100286000396000f3fe6080604052600436106100545760003560e01c806207df301461005957806324780c56146100975780633ccfd60b146100c05780639f37092a146100ca578063b2ddee06146100e6578063f772adf11461010f575b600080fd5b34801561006557600080fd5b50610080600480360381019061007b91906110bb565b610138565b60405161008e929190611119565b60405180910390f35b3480156100a357600080fd5b506100be60048036038101906100b99190611142565b610189565b005b6100c86105b2565b005b6100e460048036038101906100df91906110bb565b6106a4565b005b3480156100f257600080fd5b5061010d600480360381019061010891906110bb565b610a86565b005b34801561011b57600080fd5b5061013660048036038101906101319190611142565b610d3a565b005b6001602052816000526040600020602052806000526040600020600091509150508060000160009054906101000a900473ffffffffffffffffffffffffffffffffffffffff16908060010154905082565b82826000600160008473ffffffffffffffffffffffffffffffffffffffff1673ffffffffffffffffffffffffffffffffffffffff16815260200190815260200160002060008381526020019081526020016000206040518060400160405290816000820160009054906101000a900473ffffffffffffffffffffffffffffffffffffffff1673ffffffffffffffffffffffffffffffffffffffff1673ffffffffffffffffffffffffffffffffffffffff16815260200160018201548152505090506000816020015111610578578585600082905060008173ffffffffffffffffffffffffffffffffffffffff16636352211e846040518263ffffffff1660e01b81526004016102989190611195565b602060405180830381865afa1580156102b5573d6000803e3d6000fd5b505050506040513d601f19601f820116820180604052508101906102d991906111c5565b90503373ffffffffffffffffffffffffffffffffffffffff168173ffffffffffffffffffffffffffffffffffffffff160361053d5760008811610348576040517f74ab794b00000000000000000000000000000000000000000000000000000000815260040160405180910390fd5b60008a90503073ffffffffffffffffffffffffffffffffffffffff168173ffffffffffffffffffffffffffffffffffffffff1663081812fc8c6040518263ffffffff1660e01b815260040161039d9190611195565b602060405180830381865afa1580156103ba573d6000803e3d6000fd5b505050506040513d601f19601f820116820180604052508101906103de91906111c5565b73ffffffffffffffffffffffffffffffffffffffff161461042b576040517fbe4dd5a600000000000000000000000000000000000000000000000000000000815260040160405180910390fd5b60405180604001604052803373ffffffffffffffffffffffffffffffffffffffff1681526020018a815250600160008d73ffffffffffffffffffffffffffffffffffffffff1673ffffffffffffffffffffffffffffffffffffffff16815260200190815260200160002060008c815260200190815260200160002060008201518160000160006101000a81548173ffffffffffffffffffffffffffffffffffffffff021916908373ffffffffffffffffffffffffffffffffffffffff160217905550602082015181600101559050507fe77c968bf19b7719db31a77b3b1392ff896ba9e80d49e57381106452c9d7cc268b8b338c60405161052f94939291906111f2565b60405180910390a15061056f565b6040517f732bfb2f00000000000000000000000000000000000000000000000000000000815260040160405180910390fd5b505050506105aa565b6040517fcc47f23c00000000000000000000000000000000000000000000000000000000815260040160405180910390fd5b505050505050565b6000600260003373ffffffffffffffffffffffffffffffffffffffff1673ffffffffffffffffffffffffffffffffffffffff16815260200190815260200160002054905060008111610630576040517f07cd4b5d00000000000000000000000000000000000000000000000000000000815260040160405180910390fd5b60003373ffffffffffffffffffffffffffffffffffffffff166108fc839081150290604051600060405180830381858888f193505050509050806106a0576040517f98f5ac1100000000000000000000000000000000000000000000000000000000815260040160405180910390fd5b5050565b6106ac610fc9565b81816000600160008473ffffffffffffffffffffffffffffffffffffffff1673ffffffffffffffffffffffffffffffffffffffff16815260200190815260200160002060008381526020019081526020016000206040518060400160405290816000820160009054906101000a900473ffffffffffffffffffffffffffffffffffffffff1673ffffffffffffffffffffffffffffffffffffffff1673ffffffffffffffffffffffffffffffffffffffff168152602001600182015481525050905060008160200151116107ab576040517f60bd97a200000000000000000000000000000000000000000000000000000000815260040160405180910390fd5b6000600160008773ffffffffffffffffffffffffffffffffffffffff1673ffffffffffffffffffffffffffffffffffffffff16815260200190815260200160002060008681526020019081526020016000206040518060400160405290816000820160009054906101000a900473ffffffffffffffffffffffffffffffffffffffff1673ffffffffffffffffffffffffffffffffffffffff1673ffffffffffffffffffffffffffffffffffffffff168152602001600182015481525050905080602001513410156108a8576040517f11631d6900000000000000000000000000000000000000000000000000000000815260040160405180910390fd5b60008690508073ffffffffffffffffffffffffffffffffffffffff166342842e0e836000015133896040518463ffffffff1660e01b81526004016108ee93929190611237565b600060405180830381600087803b15801561090857600080fd5b505af115801561091c573d6000803e3d6000fd5b505050503460026000846000015173ffffffffffffffffffffffffffffffffffffffff1673ffffffffffffffffffffffffffffffffffffffff1681526020019081526020016000205461096f919061129d565b60026000846000015173ffffffffffffffffffffffffffffffffffffffff1673ffffffffffffffffffffffffffffffffffffffff16815260200190815260200160002081905550600160008873ffffffffffffffffffffffffffffffffffffffff1673ffffffffffffffffffffffffffffffffffffffff1681526020019081526020016000206000878152602001908152602001600020600080820160006101000a81549073ffffffffffffffffffffffffffffffffffffffff0219169055600182016000905550507fbd9ca37d39bd82cad4a35d9618ccc46b7055d04e211f817b2e6dae1267a02f7087873334604051610a6d94939291906111f2565b60405180910390a15050505050610a82611018565b5050565b81816000600160008473ffffffffffffffffffffffffffffffffffffffff1673ffffffffffffffffffffffffffffffffffffffff16815260200190815260200160002060008381526020019081526020016000206040518060400160405290816000820160009054906101000a900473ffffffffffffffffffffffffffffffffffffffff1673ffffffffffffffffffffffffffffffffffffffff1673ffffffffffffffffffffffffffffffffffffffff16815260200160018201548152505090506000816020015111610b85576040517f60bd97a200000000000000000000000000000000000000000000000000000000815260040160405180910390fd5b8484600082905060008173ffffffffffffffffffffffffffffffffffffffff16636352211e846040518263ffffffff1660e01b8152600401610bc79190611195565b602060405180830381865afa158015610be4573d6000803e3d6000fd5b505050506040513d601f19601f82011682018060405250810190610c0891906111c5565b90503373ffffffffffffffffffffffffffffffffffffffff168173ffffffffffffffffffffffffffffffffffffffff1603610cfd57600160008a73ffffffffffffffffffffffffffffffffffffffff1673ffffffffffffffffffffffffffffffffffffffff1681526020019081526020016000206000898152602001908152602001600020600080820160006101000a81549073ffffffffffffffffffffffffffffffffffffffff0219169055600182016000905550507f53df6f80c006573b58e17d6440b870b40592881a21c175cde20004a4135dd4608989604051610cf0929190611119565b60405180910390a1610d2f565b6040517f732bfb2f00000000000000000000000000000000000000000000000000000000815260040160405180910390fd5b505050505050505050565b82826000600160008473ffffffffffffffffffffffffffffffffffffffff1673ffffffffffffffffffffffffffffffffffffffff16815260200190815260200160002060008381526020019081526020016000206040518060400160405290816000820160009054906101000a900473ffffffffffffffffffffffffffffffffffffffff1673ffffffffffffffffffffffffffffffffffffffff1673ffffffffffffffffffffffffffffffffffffffff16815260200160018201548152505090506000816020015111610e39576040517f60bd97a200000000000000000000000000000000000000000000000000000000815260040160405180910390fd5b8585600082905060008173ffffffffffffffffffffffffffffffffffffffff16636352211e846040518263ffffffff1660e01b8152600401610e7b9190611195565b602060405180830381865afa158015610e98573d6000803e3d6000fd5b505050506040513d601f19601f82011682018060405250810190610ebc91906111c5565b90503373ffffffffffffffffffffffffffffffffffffffff168173ffffffffffffffffffffffffffffffffffffffff1603610f8b5787600160008c73ffffffffffffffffffffffffffffffffffffffff1673ffffffffffffffffffffffffffffffffffffffff16815260200190815260200160002060008b8152602001908152602001600020600101819055507fe77c968bf19b7719db31a77b3b1392ff896ba9e80d49e57381106452c9d7cc268a8a338b604051610f7e94939291906111f2565b60405180910390a1610fbd565b6040517f732bfb2f00000000000000000000000000000000000000000000000000000000815260040160405180910390fd5b50505050505050505050565b60026000540361100e576040517f08c379a00000000000000000000000000000000000000000000000000000000081526004016110059061132e565b60405180910390fd5b6002600081905550565b6001600081905550565b600080fd5b600073ffffffffffffffffffffffffffffffffffffffff82169050919050565b600061105282611027565b9050919050565b61106281611047565b811461106d57600080fd5b50565b60008135905061107f81611059565b92915050565b6000819050919050565b61109881611085565b81146110a357600080fd5b50565b6000813590506110b58161108f565b92915050565b600080604083850312156110d2576110d1611022565b5b60006110e085828601611070565b92505060206110f1858286016110a6565b9150509250929050565b61110481611047565b82525050565b61111381611085565b82525050565b600060408201905061112e60008301856110fb565b61113b602083018461110a565b9392505050565b60008060006060848603121561115b5761115a611022565b5b600061116986828701611070565b935050602061117a868287016110a6565b925050604061118b868287016110a6565b9150509250925092565b60006020820190506111aa600083018461110a565b92915050565b6000815190506111bf81611059565b92915050565b6000602082840312156111db576111da611022565b5b60006111e9848285016111b0565b91505092915050565b600060808201905061120760008301876110fb565b611214602083018661110a565b61122160408301856110fb565b61122e606083018461110a565b95945050505050565b600060608201905061124c60008301866110fb565b61125960208301856110fb565b611266604083018461110a565b949350505050565b7f4e487b7100000000000000000000000000000000000000000000000000000000600052601160045260246000fd5b60006112a882611085565b91506112b383611085565b92508282019050808211156112cb576112ca61126e565b5b92915050565b600082825260208201905092915050565b7f5265656e7472616e637947756172643a207265656e7472616e742063616c6c00600082015250565b6000611318601f836112d1565b9150611323826112e2565b602082019050919050565b600060208201905081810360008301526113478161130b565b905091905056fea2646970667358221220d356490d1711dd21322ba664f8c2a56c19f3ee11fded2d6241f552a35b35057e64736f6c63430008110033",
  "devdoc": {
    "kind": "dev",
    "methods": {},
    "version": 1
  },
  "userdoc": {
    "kind": "user",
    "methods": {},
    "version": 1
  },
  "storageLayout": {
    "storage": [
      {
        "astId": 10,
        "contract": "contracts/NftMarket.sol:NftMarket",
        "label": "_status",
        "offset": 0,
        "slot": "0",
        "type": "t_uint256"
      },
      {
        "astId": 241,
        "contract": "contracts/NftMarket.sol:NftMarket",
        "label": "listings",
        "offset": 0,
        "slot": "1",
        "type": "t_mapping(t_address,t_mapping(t_uint256,t_struct(Listing)208_storage))"
      },
      {
        "astId": 245,
        "contract": "contracts/NftMarket.sol:NftMarket",
        "label": "proceeds",
        "offset": 0,
        "slot": "2",
        "type": "t_mapping(t_address,t_uint256)"
      }
    ],
    "types": {
      "t_address": {
        "encoding": "inplace",
        "label": "address",
        "numberOfBytes": "20"
      },
      "t_mapping(t_address,t_mapping(t_uint256,t_struct(Listing)208_storage))": {
        "encoding": "mapping",
        "key": "t_address",
        "label": "mapping(address => mapping(uint256 => struct NftMarket.Listing))",
        "numberOfBytes": "32",
        "value": "t_mapping(t_uint256,t_struct(Listing)208_storage)"
      },
      "t_mapping(t_address,t_uint256)": {
        "encoding": "mapping",
        "key": "t_address",
        "label": "mapping(address => uint256)",
        "numberOfBytes": "32",
        "value": "t_uint256"
      },
      "t_mapping(t_uint256,t_struct(Listing)208_storage)": {
        "encoding": "mapping",
        "key": "t_uint256",
        "label": "mapping(uint256 => struct NftMarket.Listing)",
        "numberOfBytes": "32",
        "value": "t_struct(Listing)208_storage"
      },
      "t_struct(Listing)208_storage": {
        "encoding": "inplace",
        "label": "struct NftMarket.Listing",
        "members": [
          {
            "astId": 205,
            "contract": "contracts/NftMarket.sol:NftMarket",
            "label": "seller",
            "offset": 0,
            "slot": "0",
            "type": "t_address"
          },
          {
            "astId": 207,
            "contract": "contracts/NftMarket.sol:NftMarket",
            "label": "price",
            "offset": 0,
            "slot": "1",
            "type": "t_uint256"
          }
        ],
        "numberOfBytes": "64"
      },
      "t_uint256": {
        "encoding": "inplace",
        "label": "uint256",
        "numberOfBytes": "32"
      }
    }
  }
}