{
  "address": "0xEd0424CE925364c8823263691cEd862001201bC3",
  "abi": [
    {
      "inputs": [],
      "stateMutability": "nonpayable",
      "type": "constructor"
    },
    {
      "inputs": [],
      "name": "ZodiacNft__NftAlreadyExist",
      "type": "error"
    },
    {
      "inputs": [],
      "name": "ZodiacNft__NftNotExist",
      "type": "error"
    },
    {
      "inputs": [],
      "name": "ZodiacNft__YearOutOfRange",
      "type": "error"
    },
    {
      "anonymous": false,
      "inputs": [
        {
          "indexed": true,
          "internalType": "address",
          "name": "owner",
          "type": "address"
        },
        {
          "indexed": true,
          "internalType": "address",
          "name": "approved",
          "type": "address"
        },
        {
          "indexed": true,
          "internalType": "uint256",
          "name": "tokenId",
          "type": "uint256"
        }
      ],
      "name": "Approval",
      "type": "event"
    },
    {
      "anonymous": false,
      "inputs": [
        {
          "indexed": true,
          "internalType": "address",
          "name": "owner",
          "type": "address"
        },
        {
          "indexed": true,
          "internalType": "address",
          "name": "operator",
          "type": "address"
        },
        {
          "indexed": false,
          "internalType": "bool",
          "name": "approved",
          "type": "bool"
        }
      ],
      "name": "ApprovalForAll",
      "type": "event"
    },
    {
      "anonymous": false,
      "inputs": [
        {
          "indexed": false,
          "internalType": "uint256",
          "name": "tokenId",
          "type": "uint256"
        },
        {
          "indexed": false,
          "internalType": "address",
          "name": "owner",
          "type": "address"
        }
      ],
      "name": "NftMinted",
      "type": "event"
    },
    {
      "anonymous": false,
      "inputs": [
        {
          "indexed": true,
          "internalType": "address",
          "name": "from",
          "type": "address"
        },
        {
          "indexed": true,
          "internalType": "address",
          "name": "to",
          "type": "address"
        },
        {
          "indexed": true,
          "internalType": "uint256",
          "name": "tokenId",
          "type": "uint256"
        }
      ],
      "name": "Transfer",
      "type": "event"
    },
    {
      "inputs": [
        {
          "internalType": "address",
          "name": "to",
          "type": "address"
        },
        {
          "internalType": "uint256",
          "name": "tokenId",
          "type": "uint256"
        }
      ],
      "name": "approve",
      "outputs": [],
      "stateMutability": "nonpayable",
      "type": "function"
    },
    {
      "inputs": [
        {
          "internalType": "address",
          "name": "owner",
          "type": "address"
        }
      ],
      "name": "balanceOf",
      "outputs": [
        {
          "internalType": "uint256",
          "name": "",
          "type": "uint256"
        }
      ],
      "stateMutability": "view",
      "type": "function"
    },
    {
      "inputs": [
        {
          "internalType": "uint256",
          "name": "tokenId",
          "type": "uint256"
        }
      ],
      "name": "getApproved",
      "outputs": [
        {
          "internalType": "address",
          "name": "",
          "type": "address"
        }
      ],
      "stateMutability": "view",
      "type": "function"
    },
    {
      "inputs": [],
      "name": "getEndYear",
      "outputs": [
        {
          "internalType": "uint256",
          "name": "",
          "type": "uint256"
        }
      ],
      "stateMutability": "view",
      "type": "function"
    },
    {
      "inputs": [],
      "name": "getStartYear",
      "outputs": [
        {
          "internalType": "uint256",
          "name": "",
          "type": "uint256"
        }
      ],
      "stateMutability": "view",
      "type": "function"
    },
    {
      "inputs": [],
      "name": "getTokenCounter",
      "outputs": [
        {
          "internalType": "uint256",
          "name": "",
          "type": "uint256"
        }
      ],
      "stateMutability": "view",
      "type": "function"
    },
    {
      "inputs": [
        {
          "internalType": "address",
          "name": "owner",
          "type": "address"
        },
        {
          "internalType": "address",
          "name": "operator",
          "type": "address"
        }
      ],
      "name": "isApprovedForAll",
      "outputs": [
        {
          "internalType": "bool",
          "name": "",
          "type": "bool"
        }
      ],
      "stateMutability": "view",
      "type": "function"
    },
    {
      "inputs": [
        {
          "internalType": "uint256",
          "name": "year",
          "type": "uint256"
        }
      ],
      "name": "mintNft",
      "outputs": [],
      "stateMutability": "nonpayable",
      "type": "function"
    },
    {
      "inputs": [],
      "name": "name",
      "outputs": [
        {
          "internalType": "string",
          "name": "",
          "type": "string"
        }
      ],
      "stateMutability": "view",
      "type": "function"
    },
    {
      "inputs": [
        {
          "internalType": "uint256",
          "name": "tokenId",
          "type": "uint256"
        }
      ],
      "name": "ownerOf",
      "outputs": [
        {
          "internalType": "address",
          "name": "",
          "type": "address"
        }
      ],
      "stateMutability": "view",
      "type": "function"
    },
    {
      "inputs": [
        {
          "internalType": "address",
          "name": "from",
          "type": "address"
        },
        {
          "internalType": "address",
          "name": "to",
          "type": "address"
        },
        {
          "internalType": "uint256",
          "name": "tokenId",
          "type": "uint256"
        }
      ],
      "name": "safeTransferFrom",
      "outputs": [],
      "stateMutability": "nonpayable",
      "type": "function"
    },
    {
      "inputs": [
        {
          "internalType": "address",
          "name": "from",
          "type": "address"
        },
        {
          "internalType": "address",
          "name": "to",
          "type": "address"
        },
        {
          "internalType": "uint256",
          "name": "tokenId",
          "type": "uint256"
        },
        {
          "internalType": "bytes",
          "name": "data",
          "type": "bytes"
        }
      ],
      "name": "safeTransferFrom",
      "outputs": [],
      "stateMutability": "nonpayable",
      "type": "function"
    },
    {
      "inputs": [
        {
          "internalType": "address",
          "name": "operator",
          "type": "address"
        },
        {
          "internalType": "bool",
          "name": "approved",
          "type": "bool"
        }
      ],
      "name": "setApprovalForAll",
      "outputs": [],
      "stateMutability": "nonpayable",
      "type": "function"
    },
    {
      "inputs": [
        {
          "internalType": "bytes4",
          "name": "interfaceId",
          "type": "bytes4"
        }
      ],
      "name": "supportsInterface",
      "outputs": [
        {
          "internalType": "bool",
          "name": "",
          "type": "bool"
        }
      ],
      "stateMutability": "view",
      "type": "function"
    },
    {
      "inputs": [],
      "name": "symbol",
      "outputs": [
        {
          "internalType": "string",
          "name": "",
          "type": "string"
        }
      ],
      "stateMutability": "view",
      "type": "function"
    },
    {
      "inputs": [
        {
          "internalType": "uint256",
          "name": "year",
          "type": "uint256"
        }
      ],
      "name": "tokenURI",
      "outputs": [
        {
          "internalType": "string",
          "name": "",
          "type": "string"
        }
      ],
      "stateMutability": "view",
      "type": "function"
    },
    {
      "inputs": [
        {
          "internalType": "address",
          "name": "from",
          "type": "address"
        },
        {
          "internalType": "address",
          "name": "to",
          "type": "address"
        },
        {
          "internalType": "uint256",
          "name": "tokenId",
          "type": "uint256"
        }
      ],
      "name": "transferFrom",
      "outputs": [],
      "stateMutability": "nonpayable",
      "type": "function"
    }
  ],
  "transactionHash": "0x168c309aed037955a9c2b8b54af95bab98e6989acf90de32264d62c8ed0c2f6a",
  "args": [],
  "numDeployments": 2,
  "solcInputHash": "8ef7a6e144cdd24a661a63dc27eb6090",
  "bytecode": "0x60806040526040518061018001604052806040518060800160405280604f815260200162003b1d604f913981526020016040518060800160405280604f815260200162003c59604f913981526020016040518060800160405280604f815260200162003943604f913981526020016040518060800160405280604f815260200162003a7f604f913981526020016040518060800160405280604f815260200162003ca8604f913981526020016040518060800160405280604f8152602001620039e1604f913981526020016040518060800160405280604f815260200162003c0a604f913981526020016040518060800160405280604f815260200162003bbb604f913981526020016040518060800160405280604f815260200162003b6c604f913981526020016040518060800160405280604f815260200162003ace604f913981526020016040518060800160405280604f815260200162003a30604f913981526020016040518060800160405280604f815260200162003992604f9139815250600690600c6200019492919062000536565b506040518061018001604052806040518060400160405280600381526020017f726174000000000000000000000000000000000000000000000000000000000081525081526020016040518060400160405280600281526020017f6f7800000000000000000000000000000000000000000000000000000000000081525081526020016040518060400160405280600581526020017f746967657200000000000000000000000000000000000000000000000000000081525081526020016040518060400160405280600681526020017f726162626974000000000000000000000000000000000000000000000000000081525081526020016040518060400160405280600681526020017f647261676f6e000000000000000000000000000000000000000000000000000081525081526020016040518060400160405280600581526020017f736e616b6500000000000000000000000000000000000000000000000000000081525081526020016040518060400160405280600581526020017f686f72736500000000000000000000000000000000000000000000000000000081525081526020016040518060400160405280600481526020017f676f61740000000000000000000000000000000000000000000000000000000081525081526020016040518060400160405280600681526020017f6d6f6e6b6579000000000000000000000000000000000000000000000000000081525081526020016040518060400160405280600781526020017f726f6f737465720000000000000000000000000000000000000000000000000081525081526020016040518060400160405280600381526020017f646f67000000000000000000000000000000000000000000000000000000000081525081526020016040518060400160405280600381526020017f7069670000000000000000000000000000000000000000000000000000000000815250815250601290600c6200047592919062000536565b50610762601f5561082a6020556107606021553480156200049557600080fd5b506040518060400160405280600681526020017f5a6f6469616300000000000000000000000000000000000000000000000000008152506040518060400160405280600381526020017f5a4f440000000000000000000000000000000000000000000000000000000000815250816000908162000513919062000890565b50806001908162000525919062000890565b5050506000601e8190555062000977565b82600c810192821562000576579160200282015b828111156200057557825182908162000564919062000890565b50916020019190600101906200054a565b5b50905062000585919062000589565b5090565b5b80821115620005ad5760008181620005a39190620005b1565b506001016200058a565b5090565b508054620005bf906200067f565b6000825580601f10620005d35750620005f4565b601f016020900490600052602060002090810190620005f39190620005f7565b5b50565b5b8082111562000612576000816000905550600101620005f8565b5090565b600081519050919050565b7f4e487b7100000000000000000000000000000000000000000000000000000000600052604160045260246000fd5b7f4e487b7100000000000000000000000000000000000000000000000000000000600052602260045260246000fd5b600060028204905060018216806200069857607f821691505b602082108103620006ae57620006ad62000650565b5b50919050565b60008190508160005260206000209050919050565b60006020601f8301049050919050565b600082821b905092915050565b600060088302620007187fffffffffffffffffffffffffffffffffffffffffffffffffffffffffffffffff82620006d9565b620007248683620006d9565b95508019841693508086168417925050509392505050565b6000819050919050565b6000819050919050565b6000620007716200076b62000765846200073c565b62000746565b6200073c565b9050919050565b6000819050919050565b6200078d8362000750565b620007a56200079c8262000778565b848454620006e6565b825550505050565b600090565b620007bc620007ad565b620007c981848462000782565b505050565b5b81811015620007f157620007e5600082620007b2565b600181019050620007cf565b5050565b601f82111562000840576200080a81620006b4565b6200081584620006c9565b8101602085101562000825578190505b6200083d6200083485620006c9565b830182620007ce565b50505b505050565b600082821c905092915050565b6000620008656000198460080262000845565b1980831691505092915050565b600062000880838362000852565b9150826002028217905092915050565b6200089b8262000616565b67ffffffffffffffff811115620008b757620008b662000621565b5b620008c382546200067f565b620008d0828285620007f5565b600060209050601f831160018114620009085760008415620008f3578287015190505b620008ff858262000872565b8655506200096f565b601f1984166200091886620006b4565b60005b8281101562000942578489015182556001820191506020850194506020810190506200091b565b868310156200096257848901516200095e601f89168262000852565b8355505b6001600288020188555050505b505050505050565b612fbc80620009876000396000f3fe608060405234801561001057600080fd5b506004361061010b5760003560e01c806342842e0e116100a257806395d89b411161007157806395d89b41146102b8578063a22cb465146102d6578063b88d4fde146102f2578063c87b56dd1461030e578063e985e9c51461033e5761010b565b806342842e0e1461021e5780636352211e1461023a5780636e02007d1461026a57806370a08231146102885761010b565b80630d730acc116100de5780630d730acc146101aa5780631b3ba845146101c657806323b872dd146101e4578063352ed81b146102005761010b565b806301ffc9a71461011057806306fdde0314610140578063081812fc1461015e578063095ea7b31461018e575b600080fd5b61012a60048036038101906101259190611cdc565b61036e565b6040516101379190611d24565b60405180910390f35b610148610450565b6040516101559190611dcf565b60405180910390f35b61017860048036038101906101739190611e27565b6104e2565b6040516101859190611e95565b60405180910390f35b6101a860048036038101906101a39190611edc565b610528565b005b6101c460048036038101906101bf9190611e27565b61063f565b005b6101ce610722565b6040516101db9190611f2b565b60405180910390f35b6101fe60048036038101906101f99190611f46565b61072c565b005b61020861078c565b6040516102159190611f2b565b60405180910390f35b61023860048036038101906102339190611f46565b610796565b005b610254600480360381019061024f9190611e27565b6107b6565b6040516102619190611e95565b60405180910390f35b61027261083c565b60405161027f9190611f2b565b60405180910390f35b6102a2600480360381019061029d9190611f99565b610846565b6040516102af9190611f2b565b60405180910390f35b6102c06108fd565b6040516102cd9190611dcf565b60405180910390f35b6102f060048036038101906102eb9190611ff2565b61098f565b005b61030c60048036038101906103079190612167565b6109a5565b005b61032860048036038101906103239190611e27565b610a07565b6040516103359190611dcf565b60405180910390f35b610358600480360381019061035391906121ea565b610b8d565b6040516103659190611d24565b60405180910390f35b60007f80ac58cd000000000000000000000000000000000000000000000000000000007bffffffffffffffffffffffffffffffffffffffffffffffffffffffff1916827bffffffffffffffffffffffffffffffffffffffffffffffffffffffff1916148061043957507f5b5e139f000000000000000000000000000000000000000000000000000000007bffffffffffffffffffffffffffffffffffffffffffffffffffffffff1916827bffffffffffffffffffffffffffffffffffffffffffffffffffffffff1916145b80610449575061044882610c21565b5b9050919050565b60606000805461045f90612259565b80601f016020809104026020016040519081016040528092919081815260200182805461048b90612259565b80156104d85780601f106104ad576101008083540402835291602001916104d8565b820191906000526020600020905b8154815290600101906020018083116104bb57829003601f168201915b5050505050905090565b60006104ed82610c8b565b6004600083815260200190815260200160002060009054906101000a900473ffffffffffffffffffffffffffffffffffffffff169050919050565b6000610533826107b6565b90508073ffffffffffffffffffffffffffffffffffffffff168373ffffffffffffffffffffffffffffffffffffffff16036105a3576040517f08c379a000000000000000000000000000000000000000000000000000000000815260040161059a906122fc565b60405180910390fd5b8073ffffffffffffffffffffffffffffffffffffffff166105c2610cd6565b73ffffffffffffffffffffffffffffffffffffffff1614806105f157506105f0816105eb610cd6565b610b8d565b5b610630576040517f08c379a00000000000000000000000000000000000000000000000000000000081526004016106279061238e565b60405180910390fd5b61063a8383610cde565b505050565b6020548111806106505750601f5481105b15610687576040517f18d25fec00000000000000000000000000000000000000000000000000000000815260040160405180910390fd5b61069081610d97565b156106c7576040517f63482ef200000000000000000000000000000000000000000000000000000000815260040160405180910390fd5b6106d13382610dd8565b6001601e546106e091906123dd565b601e819055507f769eff512f395b679667e0062a0e31dad5d22dbc7e6b87f16c3de7e85e6634608133604051610717929190612411565b60405180910390a150565b6000602054905090565b61073d610737610cd6565b82610df6565b61077c576040517f08c379a0000000000000000000000000000000000000000000000000000000008152600401610773906124ac565b60405180910390fd5b610787838383610e8b565b505050565b6000601f54905090565b6107b1838383604051806020016040528060008152506109a5565b505050565b6000806107c283611184565b9050600073ffffffffffffffffffffffffffffffffffffffff168173ffffffffffffffffffffffffffffffffffffffff1603610833576040517f08c379a000000000000000000000000000000000000000000000000000000000815260040161082a90612518565b60405180910390fd5b80915050919050565b6000601e54905090565b60008073ffffffffffffffffffffffffffffffffffffffff168273ffffffffffffffffffffffffffffffffffffffff16036108b6576040517f08c379a00000000000000000000000000000000000000000000000000000000081526004016108ad906125aa565b60405180910390fd5b600360008373ffffffffffffffffffffffffffffffffffffffff1673ffffffffffffffffffffffffffffffffffffffff168152602001908152602001600020549050919050565b60606001805461090c90612259565b80601f016020809104026020016040519081016040528092919081815260200182805461093890612259565b80156109855780601f1061095a57610100808354040283529160200191610985565b820191906000526020600020905b81548152906001019060200180831161096857829003601f168201915b5050505050905090565b6109a161099a610cd6565b83836111c1565b5050565b6109b66109b0610cd6565b83610df6565b6109f5576040517f08c379a00000000000000000000000000000000000000000000000000000000081526004016109ec906124ac565b60405180910390fd5b610a018484848461132d565b50505050565b6060610a1282610d97565b610a48576040517fd177b62600000000000000000000000000000000000000000000000000000000815260040160405180910390fd5b6000600c60215484610a5a91906125ca565b610a64919061262d565b90506000600682600c8110610a7c57610a7b61265e565b5b018054610a8890612259565b80601f0160208091040260200160405190810160405280929190818152602001828054610ab490612259565b8015610b015780601f10610ad657610100808354040283529160200191610b01565b820191906000526020600020905b815481529060010190602001808311610ae457829003601f168201915b505050505090506000610b1385611389565b90506000610b60610b22610450565b83601287600c8110610b3757610b3661265e565b5b0186604051602001610b4c94939291906129e7565b604051602081830303815290604052611457565b905080604051602001610b739190612ad4565b604051602081830303815290604052945050505050919050565b6000600560008473ffffffffffffffffffffffffffffffffffffffff1673ffffffffffffffffffffffffffffffffffffffff16815260200190815260200160002060008373ffffffffffffffffffffffffffffffffffffffff1673ffffffffffffffffffffffffffffffffffffffff16815260200190815260200160002060009054906101000a900460ff16905092915050565b60007f01ffc9a7000000000000000000000000000000000000000000000000000000007bffffffffffffffffffffffffffffffffffffffffffffffffffffffff1916827bffffffffffffffffffffffffffffffffffffffffffffffffffffffff1916149050919050565b610c9481610d97565b610cd3576040517f08c379a0000000000000000000000000000000000000000000000000000000008152600401610cca90612518565b60405180910390fd5b50565b600033905090565b816004600083815260200190815260200160002060006101000a81548173ffffffffffffffffffffffffffffffffffffffff021916908373ffffffffffffffffffffffffffffffffffffffff160217905550808273ffffffffffffffffffffffffffffffffffffffff16610d51836107b6565b73ffffffffffffffffffffffffffffffffffffffff167f8c5be1e5ebec7d5bd14f71427d1e84f3dd0314c0f7b2291e5b200ac8c7c3b92560405160405180910390a45050565b60008073ffffffffffffffffffffffffffffffffffffffff16610db983611184565b73ffffffffffffffffffffffffffffffffffffffff1614159050919050565b610df28282604051806020016040528060008152506115cf565b5050565b600080610e02836107b6565b90508073ffffffffffffffffffffffffffffffffffffffff168473ffffffffffffffffffffffffffffffffffffffff161480610e445750610e438185610b8d565b5b80610e8257508373ffffffffffffffffffffffffffffffffffffffff16610e6a846104e2565b73ffffffffffffffffffffffffffffffffffffffff16145b91505092915050565b8273ffffffffffffffffffffffffffffffffffffffff16610eab826107b6565b73ffffffffffffffffffffffffffffffffffffffff1614610f01576040517f08c379a0000000000000000000000000000000000000000000000000000000008152600401610ef890612b68565b60405180910390fd5b600073ffffffffffffffffffffffffffffffffffffffff168273ffffffffffffffffffffffffffffffffffffffff1603610f70576040517f08c379a0000000000000000000000000000000000000000000000000000000008152600401610f6790612bfa565b60405180910390fd5b610f7d838383600161162a565b8273ffffffffffffffffffffffffffffffffffffffff16610f9d826107b6565b73ffffffffffffffffffffffffffffffffffffffff1614610ff3576040517f08c379a0000000000000000000000000000000000000000000000000000000008152600401610fea90612b68565b60405180910390fd5b6004600082815260200190815260200160002060006101000a81549073ffffffffffffffffffffffffffffffffffffffff02191690556001600360008573ffffffffffffffffffffffffffffffffffffffff1673ffffffffffffffffffffffffffffffffffffffff168152602001908152602001600020600082825403925050819055506001600360008473ffffffffffffffffffffffffffffffffffffffff1673ffffffffffffffffffffffffffffffffffffffff16815260200190815260200160002060008282540192505081905550816002600083815260200190815260200160002060006101000a81548173ffffffffffffffffffffffffffffffffffffffff021916908373ffffffffffffffffffffffffffffffffffffffff160217905550808273ffffffffffffffffffffffffffffffffffffffff168473ffffffffffffffffffffffffffffffffffffffff167fddf252ad1be2c89b69c2b068fc378daa952ba7f163c4a11628f55a4df523b3ef60405160405180910390a461117f8383836001611750565b505050565b60006002600083815260200190815260200160002060009054906101000a900473ffffffffffffffffffffffffffffffffffffffff169050919050565b8173ffffffffffffffffffffffffffffffffffffffff168373ffffffffffffffffffffffffffffffffffffffff160361122f576040517f08c379a000000000000000000000000000000000000000000000000000000000815260040161122690612c66565b60405180910390fd5b80600560008573ffffffffffffffffffffffffffffffffffffffff1673ffffffffffffffffffffffffffffffffffffffff16815260200190815260200160002060008473ffffffffffffffffffffffffffffffffffffffff1673ffffffffffffffffffffffffffffffffffffffff16815260200190815260200160002060006101000a81548160ff0219169083151502179055508173ffffffffffffffffffffffffffffffffffffffff168373ffffffffffffffffffffffffffffffffffffffff167f17307eab39ab6107e8899845ad3d59bd9653f200f220920489ca2b5937696c31836040516113209190611d24565b60405180910390a3505050565b611338848484610e8b565b61134484848484611756565b611383576040517f08c379a000000000000000000000000000000000000000000000000000000000815260040161137a90612cf8565b60405180910390fd5b50505050565b606060006001611398846118dd565b01905060008167ffffffffffffffff8111156113b7576113b661203c565b5b6040519080825280601f01601f1916602001820160405280156113e95781602001600182028036833780820191505090505b509050600082602001820190505b60011561144c578080600190039150507f3031323334353637383961626364656600000000000000000000000000000000600a86061a8153600a85816114405761143f6125fe565b5b049450600085036113f7575b819350505050919050565b60606000825103611479576040518060200160405280600081525090506115ca565b6000604051806060016040528060408152602001612f4760409139905060006003600285516114a891906123dd565b6114b29190612d18565b60046114be9190612d49565b905060006020826114cf91906123dd565b67ffffffffffffffff8111156114e8576114e761203c565b5b6040519080825280601f01601f19166020018201604052801561151a5781602001600182028036833780820191505090505b509050818152600183018586518101602084015b81831015611589576003830192508251603f8160121c168501518253600182019150603f81600c1c168501518253600182019150603f8160061c168501518253600182019150603f811685015182536001820191505061152e565b6003895106600181146115a357600281146115b3576115be565b613d3d60f01b60028303526115be565b603d60f81b60018303525b50505050508093505050505b919050565b6115d98383611a30565b6115e66000848484611756565b611625576040517f08c379a000000000000000000000000000000000000000000000000000000000815260040161161c90612cf8565b60405180910390fd5b505050565b600181111561174a57600073ffffffffffffffffffffffffffffffffffffffff168473ffffffffffffffffffffffffffffffffffffffff16146116be5780600360008673ffffffffffffffffffffffffffffffffffffffff1673ffffffffffffffffffffffffffffffffffffffff16815260200190815260200160002060008282546116b691906125ca565b925050819055505b600073ffffffffffffffffffffffffffffffffffffffff168373ffffffffffffffffffffffffffffffffffffffff16146117495780600360008573ffffffffffffffffffffffffffffffffffffffff1673ffffffffffffffffffffffffffffffffffffffff168152602001908152602001600020600082825461174191906123dd565b925050819055505b5b50505050565b50505050565b60006117778473ffffffffffffffffffffffffffffffffffffffff16611c4d565b156118d0578373ffffffffffffffffffffffffffffffffffffffff1663150b7a026117a0610cd6565b8786866040518563ffffffff1660e01b81526004016117c29493929190612de0565b6020604051808303816000875af19250505080156117fe57506040513d601f19601f820116820180604052508101906117fb9190612e41565b60015b611880573d806000811461182e576040519150601f19603f3d011682016040523d82523d6000602084013e611833565b606091505b506000815103611878576040517f08c379a000000000000000000000000000000000000000000000000000000000815260040161186f90612cf8565b60405180910390fd5b805181602001fd5b63150b7a0260e01b7bffffffffffffffffffffffffffffffffffffffffffffffffffffffff1916817bffffffffffffffffffffffffffffffffffffffffffffffffffffffff1916149150506118d5565b600190505b949350505050565b600080600090507a184f03e93ff9f4daa797ed6e38ed64bf6a1f010000000000000000831061193b577a184f03e93ff9f4daa797ed6e38ed64bf6a1f0100000000000000008381611931576119306125fe565b5b0492506040810190505b6d04ee2d6d415b85acef81000000008310611978576d04ee2d6d415b85acef8100000000838161196e5761196d6125fe565b5b0492506020810190505b662386f26fc1000083106119a757662386f26fc10000838161199d5761199c6125fe565b5b0492506010810190505b6305f5e10083106119d0576305f5e10083816119c6576119c56125fe565b5b0492506008810190505b61271083106119f55761271083816119eb576119ea6125fe565b5b0492506004810190505b60648310611a185760648381611a0e57611a0d6125fe565b5b0492506002810190505b600a8310611a27576001810190505b80915050919050565b600073ffffffffffffffffffffffffffffffffffffffff168273ffffffffffffffffffffffffffffffffffffffff1603611a9f576040517f08c379a0000000000000000000000000000000000000000000000000000000008152600401611a9690612eba565b60405180910390fd5b611aa881610d97565b15611ae8576040517f08c379a0000000000000000000000000000000000000000000000000000000008152600401611adf90612f26565b60405180910390fd5b611af660008383600161162a565b611aff81610d97565b15611b3f576040517f08c379a0000000000000000000000000000000000000000000000000000000008152600401611b3690612f26565b60405180910390fd5b6001600360008473ffffffffffffffffffffffffffffffffffffffff1673ffffffffffffffffffffffffffffffffffffffff16815260200190815260200160002060008282540192505081905550816002600083815260200190815260200160002060006101000a81548173ffffffffffffffffffffffffffffffffffffffff021916908373ffffffffffffffffffffffffffffffffffffffff160217905550808273ffffffffffffffffffffffffffffffffffffffff16600073ffffffffffffffffffffffffffffffffffffffff167fddf252ad1be2c89b69c2b068fc378daa952ba7f163c4a11628f55a4df523b3ef60405160405180910390a4611c49600083836001611750565b5050565b6000808273ffffffffffffffffffffffffffffffffffffffff163b119050919050565b6000604051905090565b600080fd5b600080fd5b60007fffffffff0000000000000000000000000000000000000000000000000000000082169050919050565b611cb981611c84565b8114611cc457600080fd5b50565b600081359050611cd681611cb0565b92915050565b600060208284031215611cf257611cf1611c7a565b5b6000611d0084828501611cc7565b91505092915050565b60008115159050919050565b611d1e81611d09565b82525050565b6000602082019050611d396000830184611d15565b92915050565b600081519050919050565b600082825260208201905092915050565b60005b83811015611d79578082015181840152602081019050611d5e565b60008484015250505050565b6000601f19601f8301169050919050565b6000611da182611d3f565b611dab8185611d4a565b9350611dbb818560208601611d5b565b611dc481611d85565b840191505092915050565b60006020820190508181036000830152611de98184611d96565b905092915050565b6000819050919050565b611e0481611df1565b8114611e0f57600080fd5b50565b600081359050611e2181611dfb565b92915050565b600060208284031215611e3d57611e3c611c7a565b5b6000611e4b84828501611e12565b91505092915050565b600073ffffffffffffffffffffffffffffffffffffffff82169050919050565b6000611e7f82611e54565b9050919050565b611e8f81611e74565b82525050565b6000602082019050611eaa6000830184611e86565b92915050565b611eb981611e74565b8114611ec457600080fd5b50565b600081359050611ed681611eb0565b92915050565b60008060408385031215611ef357611ef2611c7a565b5b6000611f0185828601611ec7565b9250506020611f1285828601611e12565b9150509250929050565b611f2581611df1565b82525050565b6000602082019050611f406000830184611f1c565b92915050565b600080600060608486031215611f5f57611f5e611c7a565b5b6000611f6d86828701611ec7565b9350506020611f7e86828701611ec7565b9250506040611f8f86828701611e12565b9150509250925092565b600060208284031215611faf57611fae611c7a565b5b6000611fbd84828501611ec7565b91505092915050565b611fcf81611d09565b8114611fda57600080fd5b50565b600081359050611fec81611fc6565b92915050565b6000806040838503121561200957612008611c7a565b5b600061201785828601611ec7565b925050602061202885828601611fdd565b9150509250929050565b600080fd5b600080fd5b7f4e487b7100000000000000000000000000000000000000000000000000000000600052604160045260246000fd5b61207482611d85565b810181811067ffffffffffffffff821117156120935761209261203c565b5b80604052505050565b60006120a6611c70565b90506120b2828261206b565b919050565b600067ffffffffffffffff8211156120d2576120d161203c565b5b6120db82611d85565b9050602081019050919050565b82818337600083830152505050565b600061210a612105846120b7565b61209c565b90508281526020810184848401111561212657612125612037565b5b6121318482856120e8565b509392505050565b600082601f83011261214e5761214d612032565b5b813561215e8482602086016120f7565b91505092915050565b6000806000806080858703121561218157612180611c7a565b5b600061218f87828801611ec7565b94505060206121a087828801611ec7565b93505060406121b187828801611e12565b925050606085013567ffffffffffffffff8111156121d2576121d1611c7f565b5b6121de87828801612139565b91505092959194509250565b6000806040838503121561220157612200611c7a565b5b600061220f85828601611ec7565b925050602061222085828601611ec7565b9150509250929050565b7f4e487b7100000000000000000000000000000000000000000000000000000000600052602260045260246000fd5b6000600282049050600182168061227157607f821691505b6020821081036122845761228361222a565b5b50919050565b7f4552433732313a20617070726f76616c20746f2063757272656e74206f776e6560008201527f7200000000000000000000000000000000000000000000000000000000000000602082015250565b60006122e6602183611d4a565b91506122f18261228a565b604082019050919050565b60006020820190508181036000830152612315816122d9565b9050919050565b7f4552433732313a20617070726f76652063616c6c6572206973206e6f7420746f60008201527f6b656e206f776e6572206f7220617070726f76656420666f7220616c6c000000602082015250565b6000612378603d83611d4a565b91506123838261231c565b604082019050919050565b600060208201905081810360008301526123a78161236b565b9050919050565b7f4e487b7100000000000000000000000000000000000000000000000000000000600052601160045260246000fd5b60006123e882611df1565b91506123f383611df1565b925082820190508082111561240b5761240a6123ae565b5b92915050565b60006040820190506124266000830185611f1c565b6124336020830184611e86565b9392505050565b7f4552433732313a2063616c6c6572206973206e6f7420746f6b656e206f776e6560008201527f72206f7220617070726f76656400000000000000000000000000000000000000602082015250565b6000612496602d83611d4a565b91506124a18261243a565b604082019050919050565b600060208201905081810360008301526124c581612489565b9050919050565b7f4552433732313a20696e76616c696420746f6b656e2049440000000000000000600082015250565b6000612502601883611d4a565b915061250d826124cc565b602082019050919050565b60006020820190508181036000830152612531816124f5565b9050919050565b7f4552433732313a2061646472657373207a65726f206973206e6f74206120766160008201527f6c6964206f776e65720000000000000000000000000000000000000000000000602082015250565b6000612594602983611d4a565b915061259f82612538565b604082019050919050565b600060208201905081810360008301526125c381612587565b9050919050565b60006125d582611df1565b91506125e083611df1565b92508282039050818111156125f8576125f76123ae565b5b92915050565b7f4e487b7100000000000000000000000000000000000000000000000000000000600052601260045260246000fd5b600061263882611df1565b915061264383611df1565b925082612653576126526125fe565b5b828206905092915050565b7f4e487b7100000000000000000000000000000000000000000000000000000000600052603260045260246000fd5b600081905092915050565b7f7b00000000000000000000000000000000000000000000000000000000000000600082015250565b60006126ce60018361268d565b91506126d982612698565b600182019050919050565b7f226e616d65223a22000000000000000000000000000000000000000000000000600082015250565b600061271a60088361268d565b9150612725826126e4565b600882019050919050565b600061273b82611d3f565b612745818561268d565b9350612755818560208601611d5b565b80840191505092915050565b7f222c000000000000000000000000000000000000000000000000000000000000600082015250565b600061279760028361268d565b91506127a282612761565b600282019050919050565b7f226465736372697074696f6e223a225a6f646961632073657269657320746f6b60008201527f656e2c2000000000000000000000000000000000000000000000000000000000602082015250565b600061280960248361268d565b9150612814826127ad565b602482019050919050565b7f3a2079656172206f662000000000000000000000000000000000000000000000600082015250565b6000612855600a8361268d565b91506128608261281f565b600a82019050919050565b60008190508160005260206000209050919050565b6000815461288d81612259565b612897818661268d565b945060018216600081146128b257600181146128c7576128fa565b60ff19831686528115158202860193506128fa565b6128d08561286b565b60005b838110156128f2578154818901526001820191506020810190506128d3565b838801955050505b50505092915050565b7f22696d616765223a220000000000000000000000000000000000000000000000600082015250565b600061293960098361268d565b915061294482612903565b600982019050919050565b7f2200000000000000000000000000000000000000000000000000000000000000600082015250565b600061298560018361268d565b91506129908261294f565b600182019050919050565b7f7d00000000000000000000000000000000000000000000000000000000000000600082015250565b60006129d160018361268d565b91506129dc8261299b565b600182019050919050565b60006129f2826126c1565b91506129fd8261270d565b9150612a098287612730565b9150612a148261278a565b9150612a1f826127fc565b9150612a2b8286612730565b9150612a3682612848565b9150612a428285612880565b9150612a4d8261278a565b9150612a588261292c565b9150612a648284612730565b9150612a6f82612978565b9150612a7a826129c4565b915081905095945050505050565b7f646174613a6170706c69636174696f6e2f6a736f6e3b6261736536342c000000600082015250565b6000612abe601d8361268d565b9150612ac982612a88565b601d82019050919050565b6000612adf82612ab1565b9150612aeb8284612730565b915081905092915050565b7f4552433732313a207472616e736665722066726f6d20696e636f72726563742060008201527f6f776e6572000000000000000000000000000000000000000000000000000000602082015250565b6000612b52602583611d4a565b9150612b5d82612af6565b604082019050919050565b60006020820190508181036000830152612b8181612b45565b9050919050565b7f4552433732313a207472616e7366657220746f20746865207a65726f2061646460008201527f7265737300000000000000000000000000000000000000000000000000000000602082015250565b6000612be4602483611d4a565b9150612bef82612b88565b604082019050919050565b60006020820190508181036000830152612c1381612bd7565b9050919050565b7f4552433732313a20617070726f766520746f2063616c6c657200000000000000600082015250565b6000612c50601983611d4a565b9150612c5b82612c1a565b602082019050919050565b60006020820190508181036000830152612c7f81612c43565b9050919050565b7f4552433732313a207472616e7366657220746f206e6f6e20455243373231526560008201527f63656976657220696d706c656d656e7465720000000000000000000000000000602082015250565b6000612ce2603283611d4a565b9150612ced82612c86565b604082019050919050565b60006020820190508181036000830152612d1181612cd5565b9050919050565b6000612d2382611df1565b9150612d2e83611df1565b925082612d3e57612d3d6125fe565b5b828204905092915050565b6000612d5482611df1565b9150612d5f83611df1565b9250828202612d6d81611df1565b91508282048414831517612d8457612d836123ae565b5b5092915050565b600081519050919050565b600082825260208201905092915050565b6000612db282612d8b565b612dbc8185612d96565b9350612dcc818560208601611d5b565b612dd581611d85565b840191505092915050565b6000608082019050612df56000830187611e86565b612e026020830186611e86565b612e0f6040830185611f1c565b8181036060830152612e218184612da7565b905095945050505050565b600081519050612e3b81611cb0565b92915050565b600060208284031215612e5757612e56611c7a565b5b6000612e6584828501612e2c565b91505092915050565b7f4552433732313a206d696e7420746f20746865207a65726f2061646472657373600082015250565b6000612ea4602083611d4a565b9150612eaf82612e6e565b602082019050919050565b60006020820190508181036000830152612ed381612e97565b9050919050565b7f4552433732313a20746f6b656e20616c7265616479206d696e74656400000000600082015250565b6000612f10601c83611d4a565b9150612f1b82612eda565b602082019050919050565b60006020820190508181036000830152612f3f81612f03565b905091905056fe4142434445464748494a4b4c4d4e4f505152535455565758595a6162636465666768696a6b6c6d6e6f707172737475767778797a303132333435363738392b2fa2646970667358221220d95ffca1128fe2f674dd284d405af82457bc8a538502f15c62795aa38e88dbcc64736f6c6343000811003368747470733a2f2f636c6f7564666c6172652d697066732e636f6d2f697066732f516d643555724573684e6b62656d39426b45597254514d3831366a504c62725036737a7174737a585537514d503168747470733a2f2f636c6f7564666c6172652d697066732e636f6d2f697066732f516d58455047544c684c686d47697166457741384b736364766b6b4d434e654e65534a42455535526d793867705968747470733a2f2f636c6f7564666c6172652d697066732e636f6d2f697066732f516d565a4e486647585532654a52554c6f6157326b5678586a71684c4a5a4a4d4d695878707578544e745953645a68747470733a2f2f636c6f7564666c6172652d697066732e636f6d2f697066732f516d545a44464e693261525251733436504a5939744c44676361346f56616947675a6f51344c707173527273736f68747470733a2f2f636c6f7564666c6172652d697066732e636f6d2f697066732f516d6357655539356e3650504c4d6e533370507268594c6871513474554877534470576e56713867596b384e594768747470733a2f2f636c6f7564666c6172652d697066732e636f6d2f697066732f516d50466e676a3643473475556539724b734b5135474d533666466348424147594174576668314e424a6e4c364868747470733a2f2f636c6f7564666c6172652d697066732e636f6d2f697066732f516d567a69654d45787267686261486d6379627835684468624b686b3650353846316b6b554b7458463461414d5268747470733a2f2f636c6f7564666c6172652d697066732e636f6d2f697066732f516d59627633503862566b4777754864796e73514e59466d7279394d4b546f4774757365574c765544454b57484768747470733a2f2f636c6f7564666c6172652d697066732e636f6d2f697066732f516d514675464e716863654c434e596e356a474865686d4a6146417153594e485a506f317568554d55464b70444368747470733a2f2f636c6f7564666c6172652d697066732e636f6d2f697066732f516d64336d484172326e686a34366d32357579556b663765427a7a637176544e546a6e764d337a59724b794d443968747470733a2f2f636c6f7564666c6172652d697066732e636f6d2f697066732f516d536345424e655a4c5735364c4152487575537477426254515737587a366f6f31584254775239614c3750535468747470733a2f2f636c6f7564666c6172652d697066732e636f6d2f697066732f516d566d5439516a4c514648674757714a457634684d3950744a776233665a77706a766447654a51766379534e51",
  "devdoc": {
    "kind": "dev",
    "methods": {
      "approve(address,uint256)": {
        "details": "See {IERC721-approve}."
      },
      "balanceOf(address)": {
        "details": "See {IERC721-balanceOf}."
      },
      "getApproved(uint256)": {
        "details": "See {IERC721-getApproved}."
      },
      "isApprovedForAll(address,address)": {
        "details": "See {IERC721-isApprovedForAll}."
      },
      "name()": {
        "details": "See {IERC721Metadata-name}."
      },
      "ownerOf(uint256)": {
        "details": "See {IERC721-ownerOf}."
      },
      "safeTransferFrom(address,address,uint256)": {
        "details": "See {IERC721-safeTransferFrom}."
      },
      "safeTransferFrom(address,address,uint256,bytes)": {
        "details": "See {IERC721-safeTransferFrom}."
      },
      "setApprovalForAll(address,bool)": {
        "details": "See {IERC721-setApprovalForAll}."
      },
      "supportsInterface(bytes4)": {
        "details": "See {IERC165-supportsInterface}."
      },
      "symbol()": {
        "details": "See {IERC721Metadata-symbol}."
      },
      "transferFrom(address,address,uint256)": {
        "details": "See {IERC721-transferFrom}."
      }
    },
    "version": 1
  },
  "userdoc": {
    "kind": "user",
    "methods": {},
    "version": 1
  },
  "storageLayout": {
    "storage": [
      {
        "astId": 25,
        "contract": "contracts/ZodiacNft.sol:ZodiacNft",
        "label": "_name",
        "offset": 0,
        "slot": "0",
        "type": "t_string_storage"
      },
      {
        "astId": 27,
        "contract": "contracts/ZodiacNft.sol:ZodiacNft",
        "label": "_symbol",
        "offset": 0,
        "slot": "1",
        "type": "t_string_storage"
      },
      {
        "astId": 31,
        "contract": "contracts/ZodiacNft.sol:ZodiacNft",
        "label": "_owners",
        "offset": 0,
        "slot": "2",
        "type": "t_mapping(t_uint256,t_address)"
      },
      {
        "astId": 35,
        "contract": "contracts/ZodiacNft.sol:ZodiacNft",
        "label": "_balances",
        "offset": 0,
        "slot": "3",
        "type": "t_mapping(t_address,t_uint256)"
      },
      {
        "astId": 39,
        "contract": "contracts/ZodiacNft.sol:ZodiacNft",
        "label": "_tokenApprovals",
        "offset": 0,
        "slot": "4",
        "type": "t_mapping(t_uint256,t_address)"
      },
      {
        "astId": 45,
        "contract": "contracts/ZodiacNft.sol:ZodiacNft",
        "label": "_operatorApprovals",
        "offset": 0,
        "slot": "5",
        "type": "t_mapping(t_address,t_mapping(t_address,t_bool))"
      },
      {
        "astId": 2678,
        "contract": "contracts/ZodiacNft.sol:ZodiacNft",
        "label": "imageUrls",
        "offset": 0,
        "slot": "6",
        "type": "t_array(t_string_storage)12_storage"
      },
      {
        "astId": 2695,
        "contract": "contracts/ZodiacNft.sol:ZodiacNft",
        "label": "zodiacNames",
        "offset": 0,
        "slot": "18",
        "type": "t_array(t_string_storage)12_storage"
      },
      {
        "astId": 2697,
        "contract": "contracts/ZodiacNft.sol:ZodiacNft",
        "label": "tokenCounter",
        "offset": 0,
        "slot": "30",
        "type": "t_uint256"
      },
      {
        "astId": 2700,
        "contract": "contracts/ZodiacNft.sol:ZodiacNft",
        "label": "startYear",
        "offset": 0,
        "slot": "31",
        "type": "t_uint256"
      },
      {
        "astId": 2703,
        "contract": "contracts/ZodiacNft.sol:ZodiacNft",
        "label": "endYear",
        "offset": 0,
        "slot": "32",
        "type": "t_uint256"
      },
      {
        "astId": 2706,
        "contract": "contracts/ZodiacNft.sol:ZodiacNft",
        "label": "firstRatYear",
        "offset": 0,
        "slot": "33",
        "type": "t_uint256"
      }
    ],
    "types": {
      "t_address": {
        "encoding": "inplace",
        "label": "address",
        "numberOfBytes": "20"
      },
      "t_array(t_string_storage)12_storage": {
        "base": "t_string_storage",
        "encoding": "inplace",
        "label": "string[12]",
        "numberOfBytes": "384"
      },
      "t_bool": {
        "encoding": "inplace",
        "label": "bool",
        "numberOfBytes": "1"
      },
      "t_mapping(t_address,t_bool)": {
        "encoding": "mapping",
        "key": "t_address",
        "label": "mapping(address => bool)",
        "numberOfBytes": "32",
        "value": "t_bool"
      },
      "t_mapping(t_address,t_mapping(t_address,t_bool))": {
        "encoding": "mapping",
        "key": "t_address",
        "label": "mapping(address => mapping(address => bool))",
        "numberOfBytes": "32",
        "value": "t_mapping(t_address,t_bool)"
      },
      "t_mapping(t_address,t_uint256)": {
        "encoding": "mapping",
        "key": "t_address",
        "label": "mapping(address => uint256)",
        "numberOfBytes": "32",
        "value": "t_uint256"
      },
      "t_mapping(t_uint256,t_address)": {
        "encoding": "mapping",
        "key": "t_uint256",
        "label": "mapping(uint256 => address)",
        "numberOfBytes": "32",
        "value": "t_address"
      },
      "t_string_storage": {
        "encoding": "bytes",
        "label": "string",
        "numberOfBytes": "32"
      },
      "t_uint256": {
        "encoding": "inplace",
        "label": "uint256",
        "numberOfBytes": "32"
      }
    }
  }
}