{
  "address": "0x964648Fa468EA9843667175f9D2B3fEdA703C3B5",
  "abi": [
    {
      "inputs": [],
      "stateMutability": "nonpayable",
      "type": "constructor"
    },
    {
      "inputs": [],
      "name": "ZodiacNft__NftAlreadyExist",
      "type": "error"
    },
    {
      "inputs": [],
      "name": "ZodiacNft__NftNotExist",
      "type": "error"
    },
    {
      "inputs": [],
      "name": "ZodiacNft__YearOutOfRange",
      "type": "error"
    },
    {
      "anonymous": false,
      "inputs": [
        {
          "indexed": true,
          "internalType": "address",
          "name": "owner",
          "type": "address"
        },
        {
          "indexed": true,
          "internalType": "address",
          "name": "approved",
          "type": "address"
        },
        {
          "indexed": true,
          "internalType": "uint256",
          "name": "tokenId",
          "type": "uint256"
        }
      ],
      "name": "Approval",
      "type": "event"
    },
    {
      "anonymous": false,
      "inputs": [
        {
          "indexed": true,
          "internalType": "address",
          "name": "owner",
          "type": "address"
        },
        {
          "indexed": true,
          "internalType": "address",
          "name": "operator",
          "type": "address"
        },
        {
          "indexed": false,
          "internalType": "bool",
          "name": "approved",
          "type": "bool"
        }
      ],
      "name": "ApprovalForAll",
      "type": "event"
    },
    {
      "anonymous": false,
      "inputs": [
        {
          "indexed": false,
          "internalType": "uint256",
          "name": "tokenId",
          "type": "uint256"
        },
        {
          "indexed": false,
          "internalType": "address",
          "name": "owner",
          "type": "address"
        },
        {
          "indexed": false,
          "internalType": "string",
          "name": "imageUrl",
          "type": "string"
        }
      ],
      "name": "NftMinted",
      "type": "event"
    },
    {
      "anonymous": false,
      "inputs": [
        {
          "indexed": true,
          "internalType": "address",
          "name": "from",
          "type": "address"
        },
        {
          "indexed": true,
          "internalType": "address",
          "name": "to",
          "type": "address"
        },
        {
          "indexed": true,
          "internalType": "uint256",
          "name": "tokenId",
          "type": "uint256"
        }
      ],
      "name": "Transfer",
      "type": "event"
    },
    {
      "inputs": [
        {
          "internalType": "address",
          "name": "to",
          "type": "address"
        },
        {
          "internalType": "uint256",
          "name": "tokenId",
          "type": "uint256"
        }
      ],
      "name": "approve",
      "outputs": [],
      "stateMutability": "nonpayable",
      "type": "function"
    },
    {
      "inputs": [
        {
          "internalType": "address",
          "name": "owner",
          "type": "address"
        }
      ],
      "name": "balanceOf",
      "outputs": [
        {
          "internalType": "uint256",
          "name": "",
          "type": "uint256"
        }
      ],
      "stateMutability": "view",
      "type": "function"
    },
    {
      "inputs": [
        {
          "internalType": "uint256",
          "name": "tokenId",
          "type": "uint256"
        }
      ],
      "name": "getApproved",
      "outputs": [
        {
          "internalType": "address",
          "name": "",
          "type": "address"
        }
      ],
      "stateMutability": "view",
      "type": "function"
    },
    {
      "inputs": [],
      "name": "getEndYear",
      "outputs": [
        {
          "internalType": "uint256",
          "name": "",
          "type": "uint256"
        }
      ],
      "stateMutability": "view",
      "type": "function"
    },
    {
      "inputs": [],
      "name": "getStartYear",
      "outputs": [
        {
          "internalType": "uint256",
          "name": "",
          "type": "uint256"
        }
      ],
      "stateMutability": "view",
      "type": "function"
    },
    {
      "inputs": [],
      "name": "getTokenCounter",
      "outputs": [
        {
          "internalType": "uint256",
          "name": "",
          "type": "uint256"
        }
      ],
      "stateMutability": "view",
      "type": "function"
    },
    {
      "inputs": [
        {
          "internalType": "address",
          "name": "owner",
          "type": "address"
        },
        {
          "internalType": "address",
          "name": "operator",
          "type": "address"
        }
      ],
      "name": "isApprovedForAll",
      "outputs": [
        {
          "internalType": "bool",
          "name": "",
          "type": "bool"
        }
      ],
      "stateMutability": "view",
      "type": "function"
    },
    {
      "inputs": [
        {
          "internalType": "uint256",
          "name": "year",
          "type": "uint256"
        }
      ],
      "name": "mintNft",
      "outputs": [],
      "stateMutability": "nonpayable",
      "type": "function"
    },
    {
      "inputs": [],
      "name": "name",
      "outputs": [
        {
          "internalType": "string",
          "name": "",
          "type": "string"
        }
      ],
      "stateMutability": "view",
      "type": "function"
    },
    {
      "inputs": [
        {
          "internalType": "uint256",
          "name": "tokenId",
          "type": "uint256"
        }
      ],
      "name": "ownerOf",
      "outputs": [
        {
          "internalType": "address",
          "name": "",
          "type": "address"
        }
      ],
      "stateMutability": "view",
      "type": "function"
    },
    {
      "inputs": [
        {
          "internalType": "address",
          "name": "from",
          "type": "address"
        },
        {
          "internalType": "address",
          "name": "to",
          "type": "address"
        },
        {
          "internalType": "uint256",
          "name": "tokenId",
          "type": "uint256"
        }
      ],
      "name": "safeTransferFrom",
      "outputs": [],
      "stateMutability": "nonpayable",
      "type": "function"
    },
    {
      "inputs": [
        {
          "internalType": "address",
          "name": "from",
          "type": "address"
        },
        {
          "internalType": "address",
          "name": "to",
          "type": "address"
        },
        {
          "internalType": "uint256",
          "name": "tokenId",
          "type": "uint256"
        },
        {
          "internalType": "bytes",
          "name": "data",
          "type": "bytes"
        }
      ],
      "name": "safeTransferFrom",
      "outputs": [],
      "stateMutability": "nonpayable",
      "type": "function"
    },
    {
      "inputs": [
        {
          "internalType": "address",
          "name": "operator",
          "type": "address"
        },
        {
          "internalType": "bool",
          "name": "approved",
          "type": "bool"
        }
      ],
      "name": "setApprovalForAll",
      "outputs": [],
      "stateMutability": "nonpayable",
      "type": "function"
    },
    {
      "inputs": [
        {
          "internalType": "bytes4",
          "name": "interfaceId",
          "type": "bytes4"
        }
      ],
      "name": "supportsInterface",
      "outputs": [
        {
          "internalType": "bool",
          "name": "",
          "type": "bool"
        }
      ],
      "stateMutability": "view",
      "type": "function"
    },
    {
      "inputs": [],
      "name": "symbol",
      "outputs": [
        {
          "internalType": "string",
          "name": "",
          "type": "string"
        }
      ],
      "stateMutability": "view",
      "type": "function"
    },
    {
      "inputs": [
        {
          "internalType": "uint256",
          "name": "year",
          "type": "uint256"
        }
      ],
      "name": "tokenURI",
      "outputs": [
        {
          "internalType": "string",
          "name": "",
          "type": "string"
        }
      ],
      "stateMutability": "view",
      "type": "function"
    },
    {
      "inputs": [
        {
          "internalType": "address",
          "name": "from",
          "type": "address"
        },
        {
          "internalType": "address",
          "name": "to",
          "type": "address"
        },
        {
          "internalType": "uint256",
          "name": "tokenId",
          "type": "uint256"
        }
      ],
      "name": "transferFrom",
      "outputs": [],
      "stateMutability": "nonpayable",
      "type": "function"
    }
  ],
  "transactionHash": "0x0052072b9d99480bd95cd6a3c8c1674d94c4a9f8cb197158f5e70344049996b8",
  "args": [],
  "numDeployments": 3,
  "solcInputHash": "9fd61ce746bbf1bb92d0c9e9422209b0",
  "bytecode": "0x60806040526040518061018001604052806040518060800160405280604f815260200162003bf6604f913981526020016040518060800160405280604f815260200162003d32604f913981526020016040518060800160405280604f815260200162003a1c604f913981526020016040518060800160405280604f815260200162003b58604f913981526020016040518060800160405280604f815260200162003d81604f913981526020016040518060800160405280604f815260200162003aba604f913981526020016040518060800160405280604f815260200162003ce3604f913981526020016040518060800160405280604f815260200162003c94604f913981526020016040518060800160405280604f815260200162003c45604f913981526020016040518060800160405280604f815260200162003ba7604f913981526020016040518060800160405280604f815260200162003b09604f913981526020016040518060800160405280604f815260200162003a6b604f9139815250600690600c6200019492919062000536565b506040518061018001604052806040518060400160405280600381526020017f726174000000000000000000000000000000000000000000000000000000000081525081526020016040518060400160405280600281526020017f6f7800000000000000000000000000000000000000000000000000000000000081525081526020016040518060400160405280600581526020017f746967657200000000000000000000000000000000000000000000000000000081525081526020016040518060400160405280600681526020017f726162626974000000000000000000000000000000000000000000000000000081525081526020016040518060400160405280600681526020017f647261676f6e000000000000000000000000000000000000000000000000000081525081526020016040518060400160405280600581526020017f736e616b6500000000000000000000000000000000000000000000000000000081525081526020016040518060400160405280600581526020017f686f72736500000000000000000000000000000000000000000000000000000081525081526020016040518060400160405280600481526020017f676f61740000000000000000000000000000000000000000000000000000000081525081526020016040518060400160405280600681526020017f6d6f6e6b6579000000000000000000000000000000000000000000000000000081525081526020016040518060400160405280600781526020017f726f6f737465720000000000000000000000000000000000000000000000000081525081526020016040518060400160405280600381526020017f646f67000000000000000000000000000000000000000000000000000000000081525081526020016040518060400160405280600381526020017f7069670000000000000000000000000000000000000000000000000000000000815250815250601290600c6200047592919062000536565b50610762601f5561082a6020556107606021553480156200049557600080fd5b506040518060400160405280600681526020017f5a6f6469616300000000000000000000000000000000000000000000000000008152506040518060400160405280600381526020017f5a4f440000000000000000000000000000000000000000000000000000000000815250816000908162000513919062000890565b50806001908162000525919062000890565b5050506000601e8190555062000977565b82600c810192821562000576579160200282015b828111156200057557825182908162000564919062000890565b50916020019190600101906200054a565b5b50905062000585919062000589565b5090565b5b80821115620005ad5760008181620005a39190620005b1565b506001016200058a565b5090565b508054620005bf906200067f565b6000825580601f10620005d35750620005f4565b601f016020900490600052602060002090810190620005f39190620005f7565b5b50565b5b8082111562000612576000816000905550600101620005f8565b5090565b600081519050919050565b7f4e487b7100000000000000000000000000000000000000000000000000000000600052604160045260246000fd5b7f4e487b7100000000000000000000000000000000000000000000000000000000600052602260045260246000fd5b600060028204905060018216806200069857607f821691505b602082108103620006ae57620006ad62000650565b5b50919050565b60008190508160005260206000209050919050565b60006020601f8301049050919050565b600082821b905092915050565b600060088302620007187fffffffffffffffffffffffffffffffffffffffffffffffffffffffffffffffff82620006d9565b620007248683620006d9565b95508019841693508086168417925050509392505050565b6000819050919050565b6000819050919050565b6000620007716200076b62000765846200073c565b62000746565b6200073c565b9050919050565b6000819050919050565b6200078d8362000750565b620007a56200079c8262000778565b848454620006e6565b825550505050565b600090565b620007bc620007ad565b620007c981848462000782565b505050565b5b81811015620007f157620007e5600082620007b2565b600181019050620007cf565b5050565b601f82111562000840576200080a81620006b4565b6200081584620006c9565b8101602085101562000825578190505b6200083d6200083485620006c9565b830182620007ce565b50505b505050565b600082821c905092915050565b6000620008656000198460080262000845565b1980831691505092915050565b600062000880838362000852565b9150826002028217905092915050565b6200089b8262000616565b67ffffffffffffffff811115620008b757620008b662000621565b5b620008c382546200067f565b620008d0828285620007f5565b600060209050601f831160018114620009085760008415620008f3578287015190505b620008ff858262000872565b8655506200096f565b601f1984166200091886620006b4565b60005b8281101562000942578489015182556001820191506020850194506020810190506200091b565b868310156200096257848901516200095e601f89168262000852565b8355505b6001600288020188555050505b505050505050565b61309580620009876000396000f3fe608060405234801561001057600080fd5b506004361061010b5760003560e01c806342842e0e116100a257806395d89b411161007157806395d89b41146102b8578063a22cb465146102d6578063b88d4fde146102f2578063c87b56dd1461030e578063e985e9c51461033e5761010b565b806342842e0e1461021e5780636352211e1461023a5780636e02007d1461026a57806370a08231146102885761010b565b80630d730acc116100de5780630d730acc146101aa5780631b3ba845146101c657806323b872dd146101e4578063352ed81b146102005761010b565b806301ffc9a71461011057806306fdde0314610140578063081812fc1461015e578063095ea7b31461018e575b600080fd5b61012a60048036038101906101259190611da0565b61036e565b6040516101379190611de8565b60405180910390f35b610148610450565b6040516101559190611e93565b60405180910390f35b61017860048036038101906101739190611eeb565b6104e2565b6040516101859190611f59565b60405180910390f35b6101a860048036038101906101a39190611fa0565b610528565b005b6101c460048036038101906101bf9190611eeb565b61063f565b005b6101ce6107e6565b6040516101db9190611fef565b60405180910390f35b6101fe60048036038101906101f9919061200a565b6107f0565b005b610208610850565b6040516102159190611fef565b60405180910390f35b6102386004803603810190610233919061200a565b61085a565b005b610254600480360381019061024f9190611eeb565b61087a565b6040516102619190611f59565b60405180910390f35b610272610900565b60405161027f9190611fef565b60405180910390f35b6102a2600480360381019061029d919061205d565b61090a565b6040516102af9190611fef565b60405180910390f35b6102c06109c1565b6040516102cd9190611e93565b60405180910390f35b6102f060048036038101906102eb91906120b6565b610a53565b005b61030c6004803603810190610307919061222b565b610a69565b005b61032860048036038101906103239190611eeb565b610acb565b6040516103359190611e93565b60405180910390f35b610358600480360381019061035391906122ae565b610c51565b6040516103659190611de8565b60405180910390f35b60007f80ac58cd000000000000000000000000000000000000000000000000000000007bffffffffffffffffffffffffffffffffffffffffffffffffffffffff1916827bffffffffffffffffffffffffffffffffffffffffffffffffffffffff1916148061043957507f5b5e139f000000000000000000000000000000000000000000000000000000007bffffffffffffffffffffffffffffffffffffffffffffffffffffffff1916827bffffffffffffffffffffffffffffffffffffffffffffffffffffffff1916145b80610449575061044882610ce5565b5b9050919050565b60606000805461045f9061231d565b80601f016020809104026020016040519081016040528092919081815260200182805461048b9061231d565b80156104d85780601f106104ad576101008083540402835291602001916104d8565b820191906000526020600020905b8154815290600101906020018083116104bb57829003601f168201915b5050505050905090565b60006104ed82610d4f565b6004600083815260200190815260200160002060009054906101000a900473ffffffffffffffffffffffffffffffffffffffff169050919050565b60006105338261087a565b90508073ffffffffffffffffffffffffffffffffffffffff168373ffffffffffffffffffffffffffffffffffffffff16036105a3576040517f08c379a000000000000000000000000000000000000000000000000000000000815260040161059a906123c0565b60405180910390fd5b8073ffffffffffffffffffffffffffffffffffffffff166105c2610d9a565b73ffffffffffffffffffffffffffffffffffffffff1614806105f157506105f0816105eb610d9a565b610c51565b5b610630576040517f08c379a000000000000000000000000000000000000000000000000000000000815260040161062790612452565b60405180910390fd5b61063a8383610da2565b505050565b6020548111806106505750601f5481105b15610687576040517f18d25fec00000000000000000000000000000000000000000000000000000000815260040160405180910390fd5b61069081610e5b565b156106c7576040517f63482ef200000000000000000000000000000000000000000000000000000000815260040160405180910390fd5b6106d13382610e9c565b6001601e546106e091906124a1565b601e819055506000600c602154836106f891906124d5565b6107029190612538565b90506000600682600c811061071a57610719612569565b5b0180546107269061231d565b80601f01602080910402602001604051908101604052809291908181526020018280546107529061231d565b801561079f5780601f106107745761010080835404028352916020019161079f565b820191906000526020600020905b81548152906001019060200180831161078257829003601f168201915b505050505090507ffe281bcdb072dfbddfafb1763ee8ba9b91ba790715c617af593493fe865ac7378333836040516107d993929190612598565b60405180910390a1505050565b6000602054905090565b6108016107fb610d9a565b82610eba565b610840576040517f08c379a000000000000000000000000000000000000000000000000000000000815260040161083790612648565b60405180910390fd5b61084b838383610f4f565b505050565b6000601f54905090565b61087583838360405180602001604052806000815250610a69565b505050565b60008061088683611248565b9050600073ffffffffffffffffffffffffffffffffffffffff168173ffffffffffffffffffffffffffffffffffffffff16036108f7576040517f08c379a00000000000000000000000000000000000000000000000000000000081526004016108ee906126b4565b60405180910390fd5b80915050919050565b6000601e54905090565b60008073ffffffffffffffffffffffffffffffffffffffff168273ffffffffffffffffffffffffffffffffffffffff160361097a576040517f08c379a000000000000000000000000000000000000000000000000000000000815260040161097190612746565b60405180910390fd5b600360008373ffffffffffffffffffffffffffffffffffffffff1673ffffffffffffffffffffffffffffffffffffffff168152602001908152602001600020549050919050565b6060600180546109d09061231d565b80601f01602080910402602001604051908101604052809291908181526020018280546109fc9061231d565b8015610a495780601f10610a1e57610100808354040283529160200191610a49565b820191906000526020600020905b815481529060010190602001808311610a2c57829003601f168201915b5050505050905090565b610a65610a5e610d9a565b8383611285565b5050565b610a7a610a74610d9a565b83610eba565b610ab9576040517f08c379a0000000000000000000000000000000000000000000000000000000008152600401610ab090612648565b60405180910390fd5b610ac5848484846113f1565b50505050565b6060610ad682610e5b565b610b0c576040517fd177b62600000000000000000000000000000000000000000000000000000000815260040160405180910390fd5b6000600c60215484610b1e91906124d5565b610b289190612538565b90506000600682600c8110610b4057610b3f612569565b5b018054610b4c9061231d565b80601f0160208091040260200160405190810160405280929190818152602001828054610b789061231d565b8015610bc55780601f10610b9a57610100808354040283529160200191610bc5565b820191906000526020600020905b815481529060010190602001808311610ba857829003601f168201915b505050505090506000610bd78561144d565b90506000610c24610be6610450565b83601287600c8110610bfb57610bfa612569565b5b0186604051602001610c109493929190612ac0565b60405160208183030381529060405261151b565b905080604051602001610c379190612bad565b604051602081830303815290604052945050505050919050565b6000600560008473ffffffffffffffffffffffffffffffffffffffff1673ffffffffffffffffffffffffffffffffffffffff16815260200190815260200160002060008373ffffffffffffffffffffffffffffffffffffffff1673ffffffffffffffffffffffffffffffffffffffff16815260200190815260200160002060009054906101000a900460ff16905092915050565b60007f01ffc9a7000000000000000000000000000000000000000000000000000000007bffffffffffffffffffffffffffffffffffffffffffffffffffffffff1916827bffffffffffffffffffffffffffffffffffffffffffffffffffffffff1916149050919050565b610d5881610e5b565b610d97576040517f08c379a0000000000000000000000000000000000000000000000000000000008152600401610d8e906126b4565b60405180910390fd5b50565b600033905090565b816004600083815260200190815260200160002060006101000a81548173ffffffffffffffffffffffffffffffffffffffff021916908373ffffffffffffffffffffffffffffffffffffffff160217905550808273ffffffffffffffffffffffffffffffffffffffff16610e158361087a565b73ffffffffffffffffffffffffffffffffffffffff167f8c5be1e5ebec7d5bd14f71427d1e84f3dd0314c0f7b2291e5b200ac8c7c3b92560405160405180910390a45050565b60008073ffffffffffffffffffffffffffffffffffffffff16610e7d83611248565b73ffffffffffffffffffffffffffffffffffffffff1614159050919050565b610eb6828260405180602001604052806000815250611693565b5050565b600080610ec68361087a565b90508073ffffffffffffffffffffffffffffffffffffffff168473ffffffffffffffffffffffffffffffffffffffff161480610f085750610f078185610c51565b5b80610f4657508373ffffffffffffffffffffffffffffffffffffffff16610f2e846104e2565b73ffffffffffffffffffffffffffffffffffffffff16145b91505092915050565b8273ffffffffffffffffffffffffffffffffffffffff16610f6f8261087a565b73ffffffffffffffffffffffffffffffffffffffff1614610fc5576040517f08c379a0000000000000000000000000000000000000000000000000000000008152600401610fbc90612c41565b60405180910390fd5b600073ffffffffffffffffffffffffffffffffffffffff168273ffffffffffffffffffffffffffffffffffffffff1603611034576040517f08c379a000000000000000000000000000000000000000000000000000000000815260040161102b90612cd3565b60405180910390fd5b61104183838360016116ee565b8273ffffffffffffffffffffffffffffffffffffffff166110618261087a565b73ffffffffffffffffffffffffffffffffffffffff16146110b7576040517f08c379a00000000000000000000000000000000000000000000000000000000081526004016110ae90612c41565b60405180910390fd5b6004600082815260200190815260200160002060006101000a81549073ffffffffffffffffffffffffffffffffffffffff02191690556001600360008573ffffffffffffffffffffffffffffffffffffffff1673ffffffffffffffffffffffffffffffffffffffff168152602001908152602001600020600082825403925050819055506001600360008473ffffffffffffffffffffffffffffffffffffffff1673ffffffffffffffffffffffffffffffffffffffff16815260200190815260200160002060008282540192505081905550816002600083815260200190815260200160002060006101000a81548173ffffffffffffffffffffffffffffffffffffffff021916908373ffffffffffffffffffffffffffffffffffffffff160217905550808273ffffffffffffffffffffffffffffffffffffffff168473ffffffffffffffffffffffffffffffffffffffff167fddf252ad1be2c89b69c2b068fc378daa952ba7f163c4a11628f55a4df523b3ef60405160405180910390a46112438383836001611814565b505050565b60006002600083815260200190815260200160002060009054906101000a900473ffffffffffffffffffffffffffffffffffffffff169050919050565b8173ffffffffffffffffffffffffffffffffffffffff168373ffffffffffffffffffffffffffffffffffffffff16036112f3576040517f08c379a00000000000000000000000000000000000000000000000000000000081526004016112ea90612d3f565b60405180910390fd5b80600560008573ffffffffffffffffffffffffffffffffffffffff1673ffffffffffffffffffffffffffffffffffffffff16815260200190815260200160002060008473ffffffffffffffffffffffffffffffffffffffff1673ffffffffffffffffffffffffffffffffffffffff16815260200190815260200160002060006101000a81548160ff0219169083151502179055508173ffffffffffffffffffffffffffffffffffffffff168373ffffffffffffffffffffffffffffffffffffffff167f17307eab39ab6107e8899845ad3d59bd9653f200f220920489ca2b5937696c31836040516113e49190611de8565b60405180910390a3505050565b6113fc848484610f4f565b6114088484848461181a565b611447576040517f08c379a000000000000000000000000000000000000000000000000000000000815260040161143e90612dd1565b60405180910390fd5b50505050565b60606000600161145c846119a1565b01905060008167ffffffffffffffff81111561147b5761147a612100565b5b6040519080825280601f01601f1916602001820160405280156114ad5781602001600182028036833780820191505090505b509050600082602001820190505b600115611510578080600190039150507f3031323334353637383961626364656600000000000000000000000000000000600a86061a8153600a858161150457611503612509565b5b049450600085036114bb575b819350505050919050565b6060600082510361153d5760405180602001604052806000815250905061168e565b6000604051806060016040528060408152602001613020604091399050600060036002855161156c91906124a1565b6115769190612df1565b60046115829190612e22565b9050600060208261159391906124a1565b67ffffffffffffffff8111156115ac576115ab612100565b5b6040519080825280601f01601f1916602001820160405280156115de5781602001600182028036833780820191505090505b509050818152600183018586518101602084015b8183101561164d576003830192508251603f8160121c168501518253600182019150603f81600c1c168501518253600182019150603f8160061c168501518253600182019150603f81168501518253600182019150506115f2565b600389510660018114611667576002811461167757611682565b613d3d60f01b6002830352611682565b603d60f81b60018303525b50505050508093505050505b919050565b61169d8383611af4565b6116aa600084848461181a565b6116e9576040517f08c379a00000000000000000000000000000000000000000000000000000000081526004016116e090612dd1565b60405180910390fd5b505050565b600181111561180e57600073ffffffffffffffffffffffffffffffffffffffff168473ffffffffffffffffffffffffffffffffffffffff16146117825780600360008673ffffffffffffffffffffffffffffffffffffffff1673ffffffffffffffffffffffffffffffffffffffff168152602001908152602001600020600082825461177a91906124d5565b925050819055505b600073ffffffffffffffffffffffffffffffffffffffff168373ffffffffffffffffffffffffffffffffffffffff161461180d5780600360008573ffffffffffffffffffffffffffffffffffffffff1673ffffffffffffffffffffffffffffffffffffffff168152602001908152602001600020600082825461180591906124a1565b925050819055505b5b50505050565b50505050565b600061183b8473ffffffffffffffffffffffffffffffffffffffff16611d11565b15611994578373ffffffffffffffffffffffffffffffffffffffff1663150b7a02611864610d9a565b8786866040518563ffffffff1660e01b81526004016118869493929190612eb9565b6020604051808303816000875af19250505080156118c257506040513d601f19601f820116820180604052508101906118bf9190612f1a565b60015b611944573d80600081146118f2576040519150601f19603f3d011682016040523d82523d6000602084013e6118f7565b606091505b50600081510361193c576040517f08c379a000000000000000000000000000000000000000000000000000000000815260040161193390612dd1565b60405180910390fd5b805181602001fd5b63150b7a0260e01b7bffffffffffffffffffffffffffffffffffffffffffffffffffffffff1916817bffffffffffffffffffffffffffffffffffffffffffffffffffffffff191614915050611999565b600190505b949350505050565b600080600090507a184f03e93ff9f4daa797ed6e38ed64bf6a1f01000000000000000083106119ff577a184f03e93ff9f4daa797ed6e38ed64bf6a1f01000000000000000083816119f5576119f4612509565b5b0492506040810190505b6d04ee2d6d415b85acef81000000008310611a3c576d04ee2d6d415b85acef81000000008381611a3257611a31612509565b5b0492506020810190505b662386f26fc100008310611a6b57662386f26fc100008381611a6157611a60612509565b5b0492506010810190505b6305f5e1008310611a94576305f5e1008381611a8a57611a89612509565b5b0492506008810190505b6127108310611ab9576127108381611aaf57611aae612509565b5b0492506004810190505b60648310611adc5760648381611ad257611ad1612509565b5b0492506002810190505b600a8310611aeb576001810190505b80915050919050565b600073ffffffffffffffffffffffffffffffffffffffff168273ffffffffffffffffffffffffffffffffffffffff1603611b63576040517f08c379a0000000000000000000000000000000000000000000000000000000008152600401611b5a90612f93565b60405180910390fd5b611b6c81610e5b565b15611bac576040517f08c379a0000000000000000000000000000000000000000000000000000000008152600401611ba390612fff565b60405180910390fd5b611bba6000838360016116ee565b611bc381610e5b565b15611c03576040517f08c379a0000000000000000000000000000000000000000000000000000000008152600401611bfa90612fff565b60405180910390fd5b6001600360008473ffffffffffffffffffffffffffffffffffffffff1673ffffffffffffffffffffffffffffffffffffffff16815260200190815260200160002060008282540192505081905550816002600083815260200190815260200160002060006101000a81548173ffffffffffffffffffffffffffffffffffffffff021916908373ffffffffffffffffffffffffffffffffffffffff160217905550808273ffffffffffffffffffffffffffffffffffffffff16600073ffffffffffffffffffffffffffffffffffffffff167fddf252ad1be2c89b69c2b068fc378daa952ba7f163c4a11628f55a4df523b3ef60405160405180910390a4611d0d600083836001611814565b5050565b6000808273ffffffffffffffffffffffffffffffffffffffff163b119050919050565b6000604051905090565b600080fd5b600080fd5b60007fffffffff0000000000000000000000000000000000000000000000000000000082169050919050565b611d7d81611d48565b8114611d8857600080fd5b50565b600081359050611d9a81611d74565b92915050565b600060208284031215611db657611db5611d3e565b5b6000611dc484828501611d8b565b91505092915050565b60008115159050919050565b611de281611dcd565b82525050565b6000602082019050611dfd6000830184611dd9565b92915050565b600081519050919050565b600082825260208201905092915050565b60005b83811015611e3d578082015181840152602081019050611e22565b60008484015250505050565b6000601f19601f8301169050919050565b6000611e6582611e03565b611e6f8185611e0e565b9350611e7f818560208601611e1f565b611e8881611e49565b840191505092915050565b60006020820190508181036000830152611ead8184611e5a565b905092915050565b6000819050919050565b611ec881611eb5565b8114611ed357600080fd5b50565b600081359050611ee581611ebf565b92915050565b600060208284031215611f0157611f00611d3e565b5b6000611f0f84828501611ed6565b91505092915050565b600073ffffffffffffffffffffffffffffffffffffffff82169050919050565b6000611f4382611f18565b9050919050565b611f5381611f38565b82525050565b6000602082019050611f6e6000830184611f4a565b92915050565b611f7d81611f38565b8114611f8857600080fd5b50565b600081359050611f9a81611f74565b92915050565b60008060408385031215611fb757611fb6611d3e565b5b6000611fc585828601611f8b565b9250506020611fd685828601611ed6565b9150509250929050565b611fe981611eb5565b82525050565b60006020820190506120046000830184611fe0565b92915050565b60008060006060848603121561202357612022611d3e565b5b600061203186828701611f8b565b935050602061204286828701611f8b565b925050604061205386828701611ed6565b9150509250925092565b60006020828403121561207357612072611d3e565b5b600061208184828501611f8b565b91505092915050565b61209381611dcd565b811461209e57600080fd5b50565b6000813590506120b08161208a565b92915050565b600080604083850312156120cd576120cc611d3e565b5b60006120db85828601611f8b565b92505060206120ec858286016120a1565b9150509250929050565b600080fd5b600080fd5b7f4e487b7100000000000000000000000000000000000000000000000000000000600052604160045260246000fd5b61213882611e49565b810181811067ffffffffffffffff8211171561215757612156612100565b5b80604052505050565b600061216a611d34565b9050612176828261212f565b919050565b600067ffffffffffffffff82111561219657612195612100565b5b61219f82611e49565b9050602081019050919050565b82818337600083830152505050565b60006121ce6121c98461217b565b612160565b9050828152602081018484840111156121ea576121e96120fb565b5b6121f58482856121ac565b509392505050565b600082601f830112612212576122116120f6565b5b81356122228482602086016121bb565b91505092915050565b6000806000806080858703121561224557612244611d3e565b5b600061225387828801611f8b565b945050602061226487828801611f8b565b935050604061227587828801611ed6565b925050606085013567ffffffffffffffff81111561229657612295611d43565b5b6122a2878288016121fd565b91505092959194509250565b600080604083850312156122c5576122c4611d3e565b5b60006122d385828601611f8b565b92505060206122e485828601611f8b565b9150509250929050565b7f4e487b7100000000000000000000000000000000000000000000000000000000600052602260045260246000fd5b6000600282049050600182168061233557607f821691505b602082108103612348576123476122ee565b5b50919050565b7f4552433732313a20617070726f76616c20746f2063757272656e74206f776e6560008201527f7200000000000000000000000000000000000000000000000000000000000000602082015250565b60006123aa602183611e0e565b91506123b58261234e565b604082019050919050565b600060208201905081810360008301526123d98161239d565b9050919050565b7f4552433732313a20617070726f76652063616c6c6572206973206e6f7420746f60008201527f6b656e206f776e6572206f7220617070726f76656420666f7220616c6c000000602082015250565b600061243c603d83611e0e565b9150612447826123e0565b604082019050919050565b6000602082019050818103600083015261246b8161242f565b9050919050565b7f4e487b7100000000000000000000000000000000000000000000000000000000600052601160045260246000fd5b60006124ac82611eb5565b91506124b783611eb5565b92508282019050808211156124cf576124ce612472565b5b92915050565b60006124e082611eb5565b91506124eb83611eb5565b925082820390508181111561250357612502612472565b5b92915050565b7f4e487b7100000000000000000000000000000000000000000000000000000000600052601260045260246000fd5b600061254382611eb5565b915061254e83611eb5565b92508261255e5761255d612509565b5b828206905092915050565b7f4e487b7100000000000000000000000000000000000000000000000000000000600052603260045260246000fd5b60006060820190506125ad6000830186611fe0565b6125ba6020830185611f4a565b81810360408301526125cc8184611e5a565b9050949350505050565b7f4552433732313a2063616c6c6572206973206e6f7420746f6b656e206f776e6560008201527f72206f7220617070726f76656400000000000000000000000000000000000000602082015250565b6000612632602d83611e0e565b915061263d826125d6565b604082019050919050565b6000602082019050818103600083015261266181612625565b9050919050565b7f4552433732313a20696e76616c696420746f6b656e2049440000000000000000600082015250565b600061269e601883611e0e565b91506126a982612668565b602082019050919050565b600060208201905081810360008301526126cd81612691565b9050919050565b7f4552433732313a2061646472657373207a65726f206973206e6f74206120766160008201527f6c6964206f776e65720000000000000000000000000000000000000000000000602082015250565b6000612730602983611e0e565b915061273b826126d4565b604082019050919050565b6000602082019050818103600083015261275f81612723565b9050919050565b600081905092915050565b7f7b00000000000000000000000000000000000000000000000000000000000000600082015250565b60006127a7600183612766565b91506127b282612771565b600182019050919050565b7f226e616d65223a22000000000000000000000000000000000000000000000000600082015250565b60006127f3600883612766565b91506127fe826127bd565b600882019050919050565b600061281482611e03565b61281e8185612766565b935061282e818560208601611e1f565b80840191505092915050565b7f222c000000000000000000000000000000000000000000000000000000000000600082015250565b6000612870600283612766565b915061287b8261283a565b600282019050919050565b7f226465736372697074696f6e223a225a6f646961632073657269657320746f6b60008201527f656e2c2000000000000000000000000000000000000000000000000000000000602082015250565b60006128e2602483612766565b91506128ed82612886565b602482019050919050565b7f3a2079656172206f662000000000000000000000000000000000000000000000600082015250565b600061292e600a83612766565b9150612939826128f8565b600a82019050919050565b60008190508160005260206000209050919050565b600081546129668161231d565b6129708186612766565b9450600182166000811461298b57600181146129a0576129d3565b60ff19831686528115158202860193506129d3565b6129a985612944565b60005b838110156129cb578154818901526001820191506020810190506129ac565b838801955050505b50505092915050565b7f22696d616765223a220000000000000000000000000000000000000000000000600082015250565b6000612a12600983612766565b9150612a1d826129dc565b600982019050919050565b7f2200000000000000000000000000000000000000000000000000000000000000600082015250565b6000612a5e600183612766565b9150612a6982612a28565b600182019050919050565b7f7d00000000000000000000000000000000000000000000000000000000000000600082015250565b6000612aaa600183612766565b9150612ab582612a74565b600182019050919050565b6000612acb8261279a565b9150612ad6826127e6565b9150612ae28287612809565b9150612aed82612863565b9150612af8826128d5565b9150612b048286612809565b9150612b0f82612921565b9150612b1b8285612959565b9150612b2682612863565b9150612b3182612a05565b9150612b3d8284612809565b9150612b4882612a51565b9150612b5382612a9d565b915081905095945050505050565b7f646174613a6170706c69636174696f6e2f6a736f6e3b6261736536342c000000600082015250565b6000612b97601d83612766565b9150612ba282612b61565b601d82019050919050565b6000612bb882612b8a565b9150612bc48284612809565b915081905092915050565b7f4552433732313a207472616e736665722066726f6d20696e636f72726563742060008201527f6f776e6572000000000000000000000000000000000000000000000000000000602082015250565b6000612c2b602583611e0e565b9150612c3682612bcf565b604082019050919050565b60006020820190508181036000830152612c5a81612c1e565b9050919050565b7f4552433732313a207472616e7366657220746f20746865207a65726f2061646460008201527f7265737300000000000000000000000000000000000000000000000000000000602082015250565b6000612cbd602483611e0e565b9150612cc882612c61565b604082019050919050565b60006020820190508181036000830152612cec81612cb0565b9050919050565b7f4552433732313a20617070726f766520746f2063616c6c657200000000000000600082015250565b6000612d29601983611e0e565b9150612d3482612cf3565b602082019050919050565b60006020820190508181036000830152612d5881612d1c565b9050919050565b7f4552433732313a207472616e7366657220746f206e6f6e20455243373231526560008201527f63656976657220696d706c656d656e7465720000000000000000000000000000602082015250565b6000612dbb603283611e0e565b9150612dc682612d5f565b604082019050919050565b60006020820190508181036000830152612dea81612dae565b9050919050565b6000612dfc82611eb5565b9150612e0783611eb5565b925082612e1757612e16612509565b5b828204905092915050565b6000612e2d82611eb5565b9150612e3883611eb5565b9250828202612e4681611eb5565b91508282048414831517612e5d57612e5c612472565b5b5092915050565b600081519050919050565b600082825260208201905092915050565b6000612e8b82612e64565b612e958185612e6f565b9350612ea5818560208601611e1f565b612eae81611e49565b840191505092915050565b6000608082019050612ece6000830187611f4a565b612edb6020830186611f4a565b612ee86040830185611fe0565b8181036060830152612efa8184612e80565b905095945050505050565b600081519050612f1481611d74565b92915050565b600060208284031215612f3057612f2f611d3e565b5b6000612f3e84828501612f05565b91505092915050565b7f4552433732313a206d696e7420746f20746865207a65726f2061646472657373600082015250565b6000612f7d602083611e0e565b9150612f8882612f47565b602082019050919050565b60006020820190508181036000830152612fac81612f70565b9050919050565b7f4552433732313a20746f6b656e20616c7265616479206d696e74656400000000600082015250565b6000612fe9601c83611e0e565b9150612ff482612fb3565b602082019050919050565b6000602082019050818103600083015261301881612fdc565b905091905056fe4142434445464748494a4b4c4d4e4f505152535455565758595a6162636465666768696a6b6c6d6e6f707172737475767778797a303132333435363738392b2fa2646970667358221220bb90783d528be0f0f9d706ee38315f06755557b5daecdc2059dc83d76db1917364736f6c6343000811003368747470733a2f2f636c6f7564666c6172652d697066732e636f6d2f697066732f516d643555724573684e6b62656d39426b45597254514d3831366a504c62725036737a7174737a585537514d503168747470733a2f2f636c6f7564666c6172652d697066732e636f6d2f697066732f516d58455047544c684c686d47697166457741384b736364766b6b4d434e654e65534a42455535526d793867705968747470733a2f2f636c6f7564666c6172652d697066732e636f6d2f697066732f516d565a4e486647585532654a52554c6f6157326b5678586a71684c4a5a4a4d4d695878707578544e745953645a68747470733a2f2f636c6f7564666c6172652d697066732e636f6d2f697066732f516d545a44464e693261525251733436504a5939744c44676361346f56616947675a6f51344c707173527273736f68747470733a2f2f636c6f7564666c6172652d697066732e636f6d2f697066732f516d6357655539356e3650504c4d6e533370507268594c6871513474554877534470576e56713867596b384e594768747470733a2f2f636c6f7564666c6172652d697066732e636f6d2f697066732f516d50466e676a3643473475556539724b734b5135474d533666466348424147594174576668314e424a6e4c364868747470733a2f2f636c6f7564666c6172652d697066732e636f6d2f697066732f516d567a69654d45787267686261486d6379627835684468624b686b3650353846316b6b554b7458463461414d5268747470733a2f2f636c6f7564666c6172652d697066732e636f6d2f697066732f516d59627633503862566b4777754864796e73514e59466d7279394d4b546f4774757365574c765544454b57484768747470733a2f2f636c6f7564666c6172652d697066732e636f6d2f697066732f516d514675464e716863654c434e596e356a474865686d4a6146417153594e485a506f317568554d55464b70444368747470733a2f2f636c6f7564666c6172652d697066732e636f6d2f697066732f516d64336d484172326e686a34366d32357579556b663765427a7a637176544e546a6e764d337a59724b794d443968747470733a2f2f636c6f7564666c6172652d697066732e636f6d2f697066732f516d536345424e655a4c5735364c4152487575537477426254515737587a366f6f31584254775239614c3750535468747470733a2f2f636c6f7564666c6172652d697066732e636f6d2f697066732f516d566d5439516a4c514648674757714a457634684d3950744a776233665a77706a766447654a51766379534e51",
  "devdoc": {
    "kind": "dev",
    "methods": {
      "approve(address,uint256)": {
        "details": "See {IERC721-approve}."
      },
      "balanceOf(address)": {
        "details": "See {IERC721-balanceOf}."
      },
      "getApproved(uint256)": {
        "details": "See {IERC721-getApproved}."
      },
      "isApprovedForAll(address,address)": {
        "details": "See {IERC721-isApprovedForAll}."
      },
      "name()": {
        "details": "See {IERC721Metadata-name}."
      },
      "ownerOf(uint256)": {
        "details": "See {IERC721-ownerOf}."
      },
      "safeTransferFrom(address,address,uint256)": {
        "details": "See {IERC721-safeTransferFrom}."
      },
      "safeTransferFrom(address,address,uint256,bytes)": {
        "details": "See {IERC721-safeTransferFrom}."
      },
      "setApprovalForAll(address,bool)": {
        "details": "See {IERC721-setApprovalForAll}."
      },
      "supportsInterface(bytes4)": {
        "details": "See {IERC165-supportsInterface}."
      },
      "symbol()": {
        "details": "See {IERC721Metadata-symbol}."
      },
      "transferFrom(address,address,uint256)": {
        "details": "See {IERC721-transferFrom}."
      }
    },
    "version": 1
  },
  "userdoc": {
    "kind": "user",
    "methods": {},
    "version": 1
  },
  "storageLayout": {
    "storage": [
      {
        "astId": 79,
        "contract": "contracts/ZodiacNft.sol:ZodiacNft",
        "label": "_name",
        "offset": 0,
        "slot": "0",
        "type": "t_string_storage"
      },
      {
        "astId": 81,
        "contract": "contracts/ZodiacNft.sol:ZodiacNft",
        "label": "_symbol",
        "offset": 0,
        "slot": "1",
        "type": "t_string_storage"
      },
      {
        "astId": 85,
        "contract": "contracts/ZodiacNft.sol:ZodiacNft",
        "label": "_owners",
        "offset": 0,
        "slot": "2",
        "type": "t_mapping(t_uint256,t_address)"
      },
      {
        "astId": 89,
        "contract": "contracts/ZodiacNft.sol:ZodiacNft",
        "label": "_balances",
        "offset": 0,
        "slot": "3",
        "type": "t_mapping(t_address,t_uint256)"
      },
      {
        "astId": 93,
        "contract": "contracts/ZodiacNft.sol:ZodiacNft",
        "label": "_tokenApprovals",
        "offset": 0,
        "slot": "4",
        "type": "t_mapping(t_uint256,t_address)"
      },
      {
        "astId": 99,
        "contract": "contracts/ZodiacNft.sol:ZodiacNft",
        "label": "_operatorApprovals",
        "offset": 0,
        "slot": "5",
        "type": "t_mapping(t_address,t_mapping(t_address,t_bool))"
      },
      {
        "astId": 3129,
        "contract": "contracts/ZodiacNft.sol:ZodiacNft",
        "label": "imageUrls",
        "offset": 0,
        "slot": "6",
        "type": "t_array(t_string_storage)12_storage"
      },
      {
        "astId": 3146,
        "contract": "contracts/ZodiacNft.sol:ZodiacNft",
        "label": "zodiacNames",
        "offset": 0,
        "slot": "18",
        "type": "t_array(t_string_storage)12_storage"
      },
      {
        "astId": 3148,
        "contract": "contracts/ZodiacNft.sol:ZodiacNft",
        "label": "tokenCounter",
        "offset": 0,
        "slot": "30",
        "type": "t_uint256"
      },
      {
        "astId": 3151,
        "contract": "contracts/ZodiacNft.sol:ZodiacNft",
        "label": "startYear",
        "offset": 0,
        "slot": "31",
        "type": "t_uint256"
      },
      {
        "astId": 3154,
        "contract": "contracts/ZodiacNft.sol:ZodiacNft",
        "label": "endYear",
        "offset": 0,
        "slot": "32",
        "type": "t_uint256"
      },
      {
        "astId": 3157,
        "contract": "contracts/ZodiacNft.sol:ZodiacNft",
        "label": "firstRatYear",
        "offset": 0,
        "slot": "33",
        "type": "t_uint256"
      }
    ],
    "types": {
      "t_address": {
        "encoding": "inplace",
        "label": "address",
        "numberOfBytes": "20"
      },
      "t_array(t_string_storage)12_storage": {
        "base": "t_string_storage",
        "encoding": "inplace",
        "label": "string[12]",
        "numberOfBytes": "384"
      },
      "t_bool": {
        "encoding": "inplace",
        "label": "bool",
        "numberOfBytes": "1"
      },
      "t_mapping(t_address,t_bool)": {
        "encoding": "mapping",
        "key": "t_address",
        "label": "mapping(address => bool)",
        "numberOfBytes": "32",
        "value": "t_bool"
      },
      "t_mapping(t_address,t_mapping(t_address,t_bool))": {
        "encoding": "mapping",
        "key": "t_address",
        "label": "mapping(address => mapping(address => bool))",
        "numberOfBytes": "32",
        "value": "t_mapping(t_address,t_bool)"
      },
      "t_mapping(t_address,t_uint256)": {
        "encoding": "mapping",
        "key": "t_address",
        "label": "mapping(address => uint256)",
        "numberOfBytes": "32",
        "value": "t_uint256"
      },
      "t_mapping(t_uint256,t_address)": {
        "encoding": "mapping",
        "key": "t_uint256",
        "label": "mapping(uint256 => address)",
        "numberOfBytes": "32",
        "value": "t_address"
      },
      "t_string_storage": {
        "encoding": "bytes",
        "label": "string",
        "numberOfBytes": "32"
      },
      "t_uint256": {
        "encoding": "inplace",
        "label": "uint256",
        "numberOfBytes": "32"
      }
    }
  }
}